{
  "_format": "hh-sol-artifact-1",
  "contractName": "LendingHelper",
  "sourceName": "contracts/LendingHelper.sol",
  "abi": [
    {
      "inputs": [
        {
          "internalType": "address",
          "name": "_addressToTokenMap",
          "type": "address"
        },
        {
          "internalType": "address",
          "name": "_lendingConfig",
          "type": "address"
        }
      ],
      "stateMutability": "nonpayable",
      "type": "constructor"
    },
    {
      "inputs": [
        {
          "internalType": "address",
          "name": "_token",
          "type": "address"
        },
        {
          "internalType": "uint256",
          "name": "_amount",
          "type": "uint256"
        }
      ],
      "name": "getAmountInUSD",
      "outputs": [
        {
          "internalType": "uint256",
          "name": "",
          "type": "uint256"
        }
      ],
      "stateMutability": "view",
      "type": "function"
    },
    {
      "inputs": [
        {
          "internalType": "address",
          "name": "_tokenAddress",
          "type": "address"
        }
      ],
      "name": "getCurrentTokenPrice",
      "outputs": [
        {
          "internalType": "uint256",
          "name": "",
          "type": "uint256"
        }
      ],
      "stateMutability": "view",
      "type": "function"
    },
    {
      "inputs": [
        {
          "internalType": "address",
          "name": "_address",
          "type": "address"
        },
        {
          "internalType": "address",
          "name": "_token",
          "type": "address"
        }
      ],
      "name": "getTokenBalance",
      "outputs": [
        {
          "internalType": "uint256",
          "name": "",
          "type": "uint256"
        }
      ],
      "stateMutability": "view",
      "type": "function"
    },
    {
      "inputs": [
        {
          "internalType": "address",
          "name": "_token",
          "type": "address"
        },
        {
          "internalType": "uint256",
          "name": "_usdAmount",
          "type": "uint256"
        }
      ],
      "name": "getTokensPerUSDAmount",
      "outputs": [
        {
          "internalType": "uint256",
          "name": "",
          "type": "uint256"
        }
      ],
      "stateMutability": "view",
      "type": "function"
    },
    {
      "inputs": [
        {
          "internalType": "uint256",
          "name": "x",
          "type": "uint256"
        },
        {
          "internalType": "uint256",
          "name": "y",
          "type": "uint256"
        }
      ],
      "name": "min",
      "outputs": [
        {
          "internalType": "uint256",
          "name": "",
          "type": "uint256"
        }
      ],
      "stateMutability": "pure",
      "type": "function"
    },
    {
      "inputs": [
        {
          "internalType": "uint256",
          "name": "startTimeStamp",
          "type": "uint256"
        },
        {
          "internalType": "uint256",
          "name": "totalTokenSupply",
          "type": "uint256"
        }
      ],
      "name": "rewardPerToken",
      "outputs": [
        {
          "internalType": "uint256",
          "name": "",
          "type": "uint256"
        }
      ],
      "stateMutability": "view",
      "type": "function"
    }
  ],
  "bytecode": "0x608060405234801561001057600080fd5b5060405161091538038061091583398101604081905261002f9161007c565b600080546001600160a01b039384166001600160a01b031991821617909155600180549290931691161790556100af565b80516001600160a01b038116811461007757600080fd5b919050565b6000806040838503121561008f57600080fd5b61009883610060565b91506100a660208401610060565b90509250929050565b610857806100be6000396000f3fe608060405234801561001057600080fd5b50600436106100625760003560e01c806309f72da31461006757806325d07a951461008c5780637ae2b5c71461009f5780639390f680146100b2578063c489744b146100c5578063d93412f4146100d8575b600080fd5b61007a6100753660046105cf565b6100eb565b60405190815260200160405180910390f35b61007a61009a36600461061d565b61041b565b61007a6100ad36600461072f565b61044d565b61007a6100c036600461061d565b610466565b61007a6100d33660046105ea565b61047b565b61007a6100e636600461072f565b6104f8565b60008054604051631ee144a160e31b81526001600160a01b0384811660048301529091169063f70a25089060240160206040518083038186803b15801561013157600080fd5b505afa158015610145573d6000803e3d6000fd5b505050506040513d601f19601f820116820180604052508101906101699190610647565b1561017757506106bd919050565b6040516244414960e81b602082015260230160408051808303601f190181529082905280516020909101206000546364d9729160e11b83526001600160a01b038581166004850152919291169063c9b2e5229060240160006040518083038186803b1580156101e557600080fd5b505afa1580156101f9573d6000803e3d6000fd5b505050506040513d6000823e601f3d908101601f191682016040526102219190810190610669565b6040516020016102319190610751565b60405160208183030381529060405280519060200120141561025557506001919050565b604051635553444360e01b602082015260240160408051808303601f190181529082905280516020909101206000546364d9729160e11b83526001600160a01b038581166004850152919291169063c9b2e5229060240160006040518083038186803b1580156102c457600080fd5b505afa1580156102d8573d6000803e3d6000fd5b505050506040513d6000823e601f3d908101601f191682016040526103009190810190610669565b6040516020016103109190610751565b60405160208183030381529060405280519060200120141561033457506001919050565b604051634c494e4b60e01b602082015260240160408051808303601f190181529082905280516020909101206000546364d9729160e11b83526001600160a01b038581166004850152919291169063c9b2e5229060240160006040518083038186803b1580156103a357600080fd5b505afa1580156103b7573d6000803e3d6000fd5b505050506040513d6000823e601f3d908101601f191682016040526103df9190810190610669565b6040516020016103ef9190610751565b60405160208183030381529060405280519060200120141561041357506006919050565b506001919050565b600080610430670de0b6b3a76400008461076d565b610439856100eb565b610443919061078f565b9150505b92915050565b60008183111561045d578161045f565b825b9392505050565b6000610471836100eb565b61045f908361076d565b6040516370a0823160e01b81526001600160a01b038381166004830152600091908316906370a082319060240160206040518083038186803b1580156104c057600080fd5b505afa1580156104d4573d6000803e3d6000fd5b505050506040513d601f19601f8201168201806040525081019061045f9190610716565b60008161050757506000610447565b60015460408051632db9519d60e11b8152905184926001600160a01b031691635b72a33a916004808301926020929190829003018186803b15801561054b57600080fd5b505afa15801561055f573d6000803e3d6000fd5b505050506040513d601f19601f820116820180604052508101906105839190610716565b61058d85426107ae565b610597919061078f565b6105a990670de0b6b3a764000061078f565b61045f919061076d565b80356001600160a01b03811681146105ca57600080fd5b919050565b6000602082840312156105e157600080fd5b61045f826105b3565b600080604083850312156105fd57600080fd5b610606836105b3565b9150610614602084016105b3565b90509250929050565b6000806040838503121561063057600080fd5b610639836105b3565b946020939093013593505050565b60006020828403121561065957600080fd5b8151801515811461045f57600080fd5b60006020828403121561067b57600080fd5b815167ffffffffffffffff8082111561069357600080fd5b818401915084601f8301126106a757600080fd5b8151818111156106b9576106b961080b565b604051601f8201601f19908116603f011681019083821181831017156106e1576106e161080b565b816040528281528760208487010111156106fa57600080fd5b61070b8360208301602088016107c5565b979650505050505050565b60006020828403121561072857600080fd5b5051919050565b6000806040838503121561074257600080fd5b50508035926020909101359150565b600082516107638184602087016107c5565b9190910192915050565b60008261078a57634e487b7160e01b600052601260045260246000fd5b500490565b60008160001904831182151516156107a9576107a96107f5565b500290565b6000828210156107c0576107c06107f5565b500390565b60005b838110156107e05781810151838201526020016107c8565b838111156107ef576000848401525b50505050565b634e487b7160e01b600052601160045260246000fd5b634e487b7160e01b600052604160045260246000fdfea2646970667358221220e20a7d640dc52145dc4d64b0461210e3f76eba675e94ddd845352c60f2c170fa64736f6c63430008060033",
  "linkReferences": {},
  "deployedLinkReferences": {}
}