{
  "_format": "hh-sol-artifact-1",
  "contractName": "LendingHelper",
  "sourceName": "contracts/LendingHelper.sol",
  "abi": [
    {
      "inputs": [
        {
          "internalType": "address",
          "name": "_addressToTokenMap",
          "type": "address"
        },
        {
          "internalType": "address",
          "name": "_lendingConfig",
          "type": "address"
        }
      ],
      "stateMutability": "nonpayable",
      "type": "constructor"
    },
    {
      "inputs": [
        {
          "internalType": "address",
          "name": "_address",
          "type": "address"
        }
      ],
      "name": "checkAddress",
      "outputs": [
        {
          "internalType": "bool",
          "name": "",
          "type": "bool"
        }
      ],
      "stateMutability": "view",
      "type": "function"
    },
    {
      "inputs": [
        {
          "internalType": "address",
          "name": "_token",
          "type": "address"
        },
        {
          "internalType": "uint256",
          "name": "_amount",
          "type": "uint256"
        }
      ],
      "name": "getAmountInUSD",
      "outputs": [
        {
          "internalType": "uint256",
          "name": "",
          "type": "uint256"
        }
      ],
      "stateMutability": "view",
      "type": "function"
    },
    {
      "inputs": [
        {
          "internalType": "address",
          "name": "_tokenAddress",
          "type": "address"
        }
      ],
      "name": "getCurrentTokenPrice",
      "outputs": [
        {
          "internalType": "uint256",
          "name": "",
          "type": "uint256"
        }
      ],
      "stateMutability": "view",
      "type": "function"
    },
    {
      "inputs": [
        {
          "internalType": "address",
          "name": "_address",
          "type": "address"
        },
        {
          "internalType": "address",
          "name": "_token",
          "type": "address"
        }
      ],
      "name": "getTokenBalance",
      "outputs": [
        {
          "internalType": "uint256",
          "name": "",
          "type": "uint256"
        }
      ],
      "stateMutability": "view",
      "type": "function"
    },
    {
      "inputs": [
        {
          "internalType": "address",
          "name": "_token",
          "type": "address"
        },
        {
          "internalType": "uint256",
          "name": "_usdAmount",
          "type": "uint256"
        }
      ],
      "name": "getTokensPerUSDAmount",
      "outputs": [
        {
          "internalType": "uint256",
          "name": "",
          "type": "uint256"
        }
      ],
      "stateMutability": "view",
      "type": "function"
    },
    {
      "inputs": [
        {
          "internalType": "uint256",
          "name": "x",
          "type": "uint256"
        },
        {
          "internalType": "uint256",
          "name": "y",
          "type": "uint256"
        }
      ],
      "name": "max",
      "outputs": [
        {
          "internalType": "uint256",
          "name": "",
          "type": "uint256"
        }
      ],
      "stateMutability": "pure",
      "type": "function"
    },
    {
      "inputs": [
        {
          "internalType": "uint256",
          "name": "x",
          "type": "uint256"
        },
        {
          "internalType": "uint256",
          "name": "y",
          "type": "uint256"
        }
      ],
      "name": "min",
      "outputs": [
        {
          "internalType": "uint256",
          "name": "",
          "type": "uint256"
        }
      ],
      "stateMutability": "pure",
      "type": "function"
    },
    {
      "inputs": [
        {
          "internalType": "uint256",
          "name": "startTimeStamp",
          "type": "uint256"
        },
        {
          "internalType": "uint256",
          "name": "totalTokenSupply",
          "type": "uint256"
        }
      ],
      "name": "rewardPerToken",
      "outputs": [
        {
          "internalType": "uint256",
          "name": "",
          "type": "uint256"
        }
      ],
      "stateMutability": "view",
      "type": "function"
    }
  ],
  "bytecode": "0x608060405234801561001057600080fd5b5060405161098438038061098483398101604081905261002f9161007c565b600080546001600160a01b039384166001600160a01b031991821617909155600180549290931691161790556100af565b80516001600160a01b038116811461007757600080fd5b919050565b6000806040838503121561008f57600080fd5b61009883610060565b91506100a660208401610060565b90509250929050565b6108c6806100be6000396000f3fe608060405234801561001057600080fd5b50600436106100885760003560e01c80637ae2b5c71161005b5780637ae2b5c7146100fc5780639390f6801461010f578063c489744b14610122578063d93412f41461013557600080fd5b806309f72da31461008d5780630ddcfe8e146100b357806325d07a95146100d65780636d5433e6146100e9575b600080fd5b6100a061009b366004610667565b610148565b6040519081526020015b60405180910390f35b6100c66100c1366004610667565b610473565b60405190151581526020016100aa565b6100a06100e43660046106b5565b610489565b6100a06100f73660046107ea565b6104b9565b6100a061010a3660046107ea565b6104d2565b6100a061011d3660046106b5565b6104e2565b6100a0610130366004610682565b6104f7565b6100a06101433660046107ea565b610574565b60008054604051631ee144a160e31b81526001600160a01b0384811660048301529091169063f70a25089060240160206040518083038186803b15801561018e57600080fd5b505afa1580156101a2573d6000803e3d6000fd5b505050506040513d601f19601f820116820180604052508101906101c691906106df565b156101d457506106cc919050565b604080518082018252600381526244414960e81b60209091015260005490516364d9729160e11b81526001600160a01b0384811660048301527fa5e92f3efb6826155f1f728e162af9d7cda33a574a1153b58f03ea01cc37e56892169063c9b2e5229060240160006040518083038186803b15801561025257600080fd5b505afa158015610266573d6000803e3d6000fd5b505050506040513d6000823e601f3d908101601f1916820160405261028e9190810190610701565b8051906020012014156102a357506001919050565b6040805180820182526004808252635553444360e01b60209092019190915260005491516364d9729160e11b81527fd6aca1be9729c13d677335161321649cccae6a591554772516700f986f942eaa926001600160a01b03169163c9b2e5229161031e918791016001600160a01b0391909116815260200190565b60006040518083038186803b15801561033657600080fd5b505afa15801561034a573d6000803e3d6000fd5b505050506040513d6000823e601f3d908101601f191682016040526103729190810190610701565b80519060200120141561038757506001919050565b6040805180820182526004808252634c494e4b60e01b60209092019190915260005491516364d9729160e11b81527f921a3539bcb764c889432630877414523e7fbca00c211bc787aeae69e2e3a779926001600160a01b03169163c9b2e52291610402918791016001600160a01b0391909116815260200190565b60006040518083038186803b15801561041a57600080fd5b505afa15801561042e573d6000803e3d6000fd5b505050506040513d6000823e601f3d908101601f191682016040526104569190810190610701565b80519060200120141561046b57506006919050565b506001919050565b60006001600160a01b0382163b15155b92915050565b60008061049e670de0b6b3a76400008461080c565b6104a785610148565b6104b1919061082e565b949350505050565b6000818310156104c957816104cb565b825b9392505050565b6000818311156104c957816104cb565b60006104ed83610148565b6104cb908361080c565b6040516370a0823160e01b81526001600160a01b038381166004830152600091908316906370a082319060240160206040518083038186803b15801561053c57600080fd5b505afa158015610550573d6000803e3d6000fd5b505050506040513d601f19601f820116820180604052508101906104cb91906107d1565b60008161058357506000610483565b600061058f844261084d565b90506000600160009054906101000a90046001600160a01b03166001600160a01b0316635b72a33a6040518163ffffffff1660e01b815260040160206040518083038186803b1580156105e157600080fd5b505afa1580156105f5573d6000803e3d6000fd5b505050506040513d601f19601f8201168201806040525081019061061991906107d1565b905083610626828461082e565b61063890670de0b6b3a764000061082e565b610642919061080c565b95945050505050565b80356001600160a01b038116811461066257600080fd5b919050565b60006020828403121561067957600080fd5b6104cb8261064b565b6000806040838503121561069557600080fd5b61069e8361064b565b91506106ac6020840161064b565b90509250929050565b600080604083850312156106c857600080fd5b6106d18361064b565b946020939093013593505050565b6000602082840312156106f157600080fd5b815180151581146104cb57600080fd5b6000602080838503121561071457600080fd5b825167ffffffffffffffff8082111561072c57600080fd5b818501915085601f83011261074057600080fd5b8151818111156107525761075261087a565b604051601f8201601f19908116603f0116810190838211818310171561077a5761077a61087a565b81604052828152888684870101111561079257600080fd5b600093505b828410156107b45784840186015181850187015292850192610797565b828411156107c55760008684830101525b98975050505050505050565b6000602082840312156107e357600080fd5b5051919050565b600080604083850312156107fd57600080fd5b50508035926020909101359150565b60008261082957634e487b7160e01b600052601260045260246000fd5b500490565b600081600019048311821515161561084857610848610864565b500290565b60008282101561085f5761085f610864565b500390565b634e487b7160e01b600052601160045260246000fd5b634e487b7160e01b600052604160045260246000fdfea2646970667358221220b7bb8b983574cf0048efd478ea530861f4661599dc238b7773d0ae76f6643cf964736f6c63430008060033",
  "linkReferences": {},
  "deployedLinkReferences": {}
}