{
  "_format": "hh-sol-artifact-1",
  "contractName": "LendingHelper",
  "sourceName": "contracts/LendingHelper.sol",
  "abi": [
    {
      "inputs": [
        {
          "internalType": "address",
          "name": "_addressToTokenMap",
          "type": "address"
        },
        {
          "internalType": "address",
          "name": "_lendingConfig",
          "type": "address"
        }
      ],
      "stateMutability": "nonpayable",
      "type": "constructor"
    },
    {
      "inputs": [
        {
          "internalType": "address",
          "name": "_address",
          "type": "address"
        }
      ],
      "name": "checkAddress",
      "outputs": [
        {
          "internalType": "bool",
          "name": "",
          "type": "bool"
        }
      ],
      "stateMutability": "view",
      "type": "function"
    },
    {
      "inputs": [
        {
          "internalType": "address",
          "name": "_token",
          "type": "address"
        },
        {
          "internalType": "uint256",
          "name": "_amount",
          "type": "uint256"
        }
      ],
      "name": "getAmountInUSD",
      "outputs": [
        {
          "internalType": "uint256",
          "name": "",
          "type": "uint256"
        }
      ],
      "stateMutability": "view",
      "type": "function"
    },
    {
      "inputs": [
        {
          "internalType": "address",
          "name": "_tokenAddress",
          "type": "address"
        }
      ],
      "name": "getCurrentTokenPrice",
      "outputs": [
        {
          "internalType": "uint256",
          "name": "",
          "type": "uint256"
        }
      ],
      "stateMutability": "view",
      "type": "function"
    },
    {
      "inputs": [
        {
          "internalType": "address",
          "name": "_address",
          "type": "address"
        },
        {
          "internalType": "address",
          "name": "_token",
          "type": "address"
        }
      ],
      "name": "getTokenBalance",
      "outputs": [
        {
          "internalType": "uint256",
          "name": "",
          "type": "uint256"
        }
      ],
      "stateMutability": "view",
      "type": "function"
    },
    {
      "inputs": [
        {
          "internalType": "address",
          "name": "_token",
          "type": "address"
        },
        {
          "internalType": "uint256",
          "name": "_usdAmount",
          "type": "uint256"
        }
      ],
      "name": "getTokensPerUSDAmount",
      "outputs": [
        {
          "internalType": "uint256",
          "name": "",
          "type": "uint256"
        }
      ],
      "stateMutability": "view",
      "type": "function"
    },
    {
      "inputs": [
        {
          "internalType": "uint256",
          "name": "x",
          "type": "uint256"
        },
        {
          "internalType": "uint256",
          "name": "y",
          "type": "uint256"
        }
      ],
      "name": "max",
      "outputs": [
        {
          "internalType": "uint256",
          "name": "",
          "type": "uint256"
        }
      ],
      "stateMutability": "pure",
      "type": "function"
    },
    {
      "inputs": [
        {
          "internalType": "uint256",
          "name": "x",
          "type": "uint256"
        },
        {
          "internalType": "uint256",
          "name": "y",
          "type": "uint256"
        }
      ],
      "name": "min",
      "outputs": [
        {
          "internalType": "uint256",
          "name": "",
          "type": "uint256"
        }
      ],
      "stateMutability": "pure",
      "type": "function"
    },
    {
      "inputs": [
        {
          "internalType": "uint256",
          "name": "startTimeStamp",
          "type": "uint256"
        },
        {
          "internalType": "uint256",
          "name": "totalTokenSupply",
          "type": "uint256"
        }
      ],
      "name": "rewardPerToken",
      "outputs": [
        {
          "internalType": "uint256",
          "name": "",
          "type": "uint256"
        }
      ],
      "stateMutability": "view",
      "type": "function"
    }
  ],
  "bytecode": "0x608060405234801561001057600080fd5b5060405161087738038061087783398101604081905261002f9161007c565b600080546001600160a01b039384166001600160a01b031991821617909155600180549290931691161790556100af565b80516001600160a01b038116811461007757600080fd5b919050565b6000806040838503121561008f57600080fd5b61009883610060565b91506100a660208401610060565b90509250929050565b6107b9806100be6000396000f3fe608060405234801561001057600080fd5b50600436106100885760003560e01c80637ae2b5c71161005b5780637ae2b5c7146100fc5780639390f6801461010f578063c489744b14610122578063d93412f41461013557600080fd5b806309f72da31461008d5780630ddcfe8e146100b357806325d07a95146100d65780636d5433e6146100e9575b600080fd5b6100a061009b3660046104c2565b610148565b6040519081526020015b60405180910390f35b6100c66100c13660046104c2565b6102d4565b60405190151581526020016100aa565b6100a06100e4366004610535565b6102ea565b6100a06100f736600461057a565b61031a565b6100a061010a36600461057a565b610333565b6100a061011d366004610535565b610343565b6100a06101303660046104fc565b610358565b6100a061014336600461057a565b6103d5565b6000805460405163281d6ea960e01b81526001600160a01b0384811660048301528392169063281d6ea99060240160206040518083038186803b15801561018e57600080fd5b505afa1580156101a2573d6000803e3d6000fd5b505050506040513d601f19601f820116820180604052508101906101c691906104df565b90506000816001600160a01b031663feaf968c6040518163ffffffff1660e01b815260040160a06040518083038186803b15801561020357600080fd5b505afa158015610217573d6000803e3d6000fd5b505050506040513d601f19601f8201168201806040525081019061023b919061059c565b5050509150506000826001600160a01b031663313ce5676040518163ffffffff1660e01b815260040160206040518083038186803b15801561027c57600080fd5b505afa158015610290573d6000803e3d6000fd5b505050506040513d601f19601f820116820180604052508101906102b491906105ec565b90506102c181600a610674565b6102cb908361060f565b95945050505050565b60006001600160a01b0382163b15155b92915050565b6000806102ff670de0b6b3a76400008461060f565b61030885610148565b610312919061071f565b949350505050565b60008183101561032a578161032c565b825b9392505050565b60008183111561032a578161032c565b600061034e83610148565b61032c908361060f565b6040516370a0823160e01b81526001600160a01b038381166004830152600091908316906370a082319060240160206040518083038186803b15801561039d57600080fd5b505afa1580156103b1573d6000803e3d6000fd5b505050506040513d601f19601f8201168201806040525081019061032c9190610561565b6000816103e4575060006102e4565b60006103f0844261073e565b90506000600160009054906101000a90046001600160a01b03166001600160a01b0316635b72a33a6040518163ffffffff1660e01b815260040160206040518083038186803b15801561044257600080fd5b505afa158015610456573d6000803e3d6000fd5b505050506040513d601f19601f8201168201806040525081019061047a9190610561565b905083610487828461071f565b61049990670de0b6b3a764000061071f565b6102cb919061060f565b805169ffffffffffffffffffff811681146104bd57600080fd5b919050565b6000602082840312156104d457600080fd5b813561032c8161076b565b6000602082840312156104f157600080fd5b815161032c8161076b565b6000806040838503121561050f57600080fd5b823561051a8161076b565b9150602083013561052a8161076b565b809150509250929050565b6000806040838503121561054857600080fd5b82356105538161076b565b946020939093013593505050565b60006020828403121561057357600080fd5b5051919050565b6000806040838503121561058d57600080fd5b50508035926020909101359150565b600080600080600060a086880312156105b457600080fd5b6105bd866104a3565b94506020860151935060408601519250606086015191506105e0608087016104a3565b90509295509295909350565b6000602082840312156105fe57600080fd5b815160ff8116811461032c57600080fd5b60008261062c57634e487b7160e01b600052601260045260246000fd5b500490565b600181815b8085111561066c57816000190482111561065257610652610755565b8085161561065f57918102915b93841c9390800290610636565b509250929050565b600061032c60ff84168360008261068d575060016102e4565b8161069a575060006102e4565b81600181146106b057600281146106ba576106d6565b60019150506102e4565b60ff8411156106cb576106cb610755565b50506001821b6102e4565b5060208310610133831016604e8410600b84101617156106f9575081810a6102e4565b6107038383610631565b806000190482111561071757610717610755565b029392505050565b600081600019048311821515161561073957610739610755565b500290565b60008282101561075057610750610755565b500390565b634e487b7160e01b600052601160045260246000fd5b6001600160a01b038116811461078057600080fd5b5056fea26469706673582212203cc406e1647e69387b2aa58d0a0eb89f5bc88f1f8970b18a1e0aadebcae870ee64736f6c63430008060033",
  "linkReferences": {},
  "deployedLinkReferences": {}
}