{
  "_format": "hh-sol-artifact-1",
  "contractName": "LendingPool",
  "sourceName": "contracts/LendingPool.sol",
  "abi": [
    {
      "inputs": [
        {
          "internalType": "address",
          "name": "_addressToTokenMap",
          "type": "address"
        },
        {
          "internalType": "address",
          "name": "_lendingConfig",
          "type": "address"
        },
        {
          "internalType": "address",
          "name": "_lendingHelper",
          "type": "address"
        }
      ],
      "stateMutability": "nonpayable",
      "type": "constructor"
    },
    {
      "anonymous": false,
      "inputs": [
        {
          "indexed": true,
          "internalType": "address",
          "name": "borrower",
          "type": "address"
        },
        {
          "indexed": true,
          "internalType": "address",
          "name": "_token",
          "type": "address"
        },
        {
          "indexed": true,
          "internalType": "uint256",
          "name": "_amount",
          "type": "uint256"
        }
      ],
      "name": "Borrow",
      "type": "event"
    },
    {
      "anonymous": false,
      "inputs": [
        {
          "indexed": true,
          "internalType": "address",
          "name": "lender",
          "type": "address"
        },
        {
          "indexed": true,
          "internalType": "address",
          "name": "_token",
          "type": "address"
        },
        {
          "indexed": true,
          "internalType": "uint256",
          "name": "_amount",
          "type": "uint256"
        }
      ],
      "name": "Lend",
      "type": "event"
    },
    {
      "anonymous": false,
      "inputs": [
        {
          "indexed": true,
          "internalType": "address",
          "name": "borrower",
          "type": "address"
        },
        {
          "indexed": true,
          "internalType": "address",
          "name": "_token",
          "type": "address"
        },
        {
          "indexed": true,
          "internalType": "uint256",
          "name": "_amount",
          "type": "uint256"
        }
      ],
      "name": "Repay",
      "type": "event"
    },
    {
      "anonymous": false,
      "inputs": [
        {
          "indexed": false,
          "internalType": "address",
          "name": "lender",
          "type": "address"
        },
        {
          "indexed": false,
          "internalType": "address",
          "name": "_token",
          "type": "address"
        },
        {
          "indexed": false,
          "internalType": "uint256",
          "name": "_amount",
          "type": "uint256"
        }
      ],
      "name": "TransferAsset",
      "type": "event"
    },
    {
      "anonymous": false,
      "inputs": [
        {
          "indexed": true,
          "internalType": "address",
          "name": "lender",
          "type": "address"
        },
        {
          "indexed": true,
          "internalType": "address",
          "name": "_token",
          "type": "address"
        },
        {
          "indexed": true,
          "internalType": "uint256",
          "name": "_amount",
          "type": "uint256"
        }
      ],
      "name": "Withdraw",
      "type": "event"
    },
    {
      "inputs": [
        {
          "internalType": "address",
          "name": "_token",
          "type": "address"
        },
        {
          "internalType": "uint256",
          "name": "_amount",
          "type": "uint256"
        }
      ],
      "name": "borrow",
      "outputs": [
        {
          "internalType": "bool",
          "name": "",
          "type": "bool"
        }
      ],
      "stateMutability": "nonpayable",
      "type": "function"
    },
    {
      "inputs": [
        {
          "internalType": "address",
          "name": "",
          "type": "address"
        },
        {
          "internalType": "uint256",
          "name": "",
          "type": "uint256"
        }
      ],
      "name": "borrowerAssets",
      "outputs": [
        {
          "internalType": "address",
          "name": "user",
          "type": "address"
        },
        {
          "internalType": "address",
          "name": "token",
          "type": "address"
        },
        {
          "internalType": "uint256",
          "name": "lentQty",
          "type": "uint256"
        },
        {
          "internalType": "uint256",
          "name": "borrowQty",
          "type": "uint256"
        },
        {
          "internalType": "uint256",
          "name": "lentApy",
          "type": "uint256"
        },
        {
          "internalType": "uint256",
          "name": "borrowApy",
          "type": "uint256"
        },
        {
          "internalType": "uint256",
          "name": "lendStartTimeStamp",
          "type": "uint256"
        },
        {
          "internalType": "uint256",
          "name": "borrowStartTimeStamp",
          "type": "uint256"
        }
      ],
      "stateMutability": "view",
      "type": "function"
    },
    {
      "inputs": [
        {
          "internalType": "address",
          "name": "_borrower",
          "type": "address"
        }
      ],
      "name": "getAssetsToBorrow",
      "outputs": [
        {
          "components": [
            {
              "internalType": "address",
              "name": "token",
              "type": "address"
            },
            {
              "internalType": "uint256",
              "name": "borrowQty",
              "type": "uint256"
            },
            {
              "internalType": "uint256",
              "name": "borrowApy",
              "type": "uint256"
            }
          ],
          "internalType": "struct LendingPool.BorrowAsset[]",
          "name": "",
          "type": "tuple[]"
        }
      ],
      "stateMutability": "view",
      "type": "function"
    },
    {
      "inputs": [
        {
          "internalType": "address",
          "name": "_borrower",
          "type": "address"
        },
        {
          "internalType": "address",
          "name": "_token",
          "type": "address"
        }
      ],
      "name": "getBorrowerAssetQty",
      "outputs": [
        {
          "internalType": "uint256",
          "name": "",
          "type": "uint256"
        }
      ],
      "stateMutability": "view",
      "type": "function"
    },
    {
      "inputs": [
        {
          "internalType": "address",
          "name": "_borrower",
          "type": "address"
        }
      ],
      "name": "getBorrowerAssets",
      "outputs": [
        {
          "components": [
            {
              "internalType": "address",
              "name": "user",
              "type": "address"
            },
            {
              "internalType": "address",
              "name": "token",
              "type": "address"
            },
            {
              "internalType": "uint256",
              "name": "lentQty",
              "type": "uint256"
            },
            {
              "internalType": "uint256",
              "name": "borrowQty",
              "type": "uint256"
            },
            {
              "internalType": "uint256",
              "name": "lentApy",
              "type": "uint256"
            },
            {
              "internalType": "uint256",
              "name": "borrowApy",
              "type": "uint256"
            },
            {
              "internalType": "uint256",
              "name": "lendStartTimeStamp",
              "type": "uint256"
            },
            {
              "internalType": "uint256",
              "name": "borrowStartTimeStamp",
              "type": "uint256"
            }
          ],
          "internalType": "struct LendingPool.UserAsset[]",
          "name": "",
          "type": "tuple[]"
        }
      ],
      "stateMutability": "view",
      "type": "function"
    },
    {
      "inputs": [
        {
          "internalType": "address",
          "name": "_lender",
          "type": "address"
        },
        {
          "internalType": "address",
          "name": "_token",
          "type": "address"
        }
      ],
      "name": "getLenderAssetQty",
      "outputs": [
        {
          "internalType": "uint256",
          "name": "",
          "type": "uint256"
        }
      ],
      "stateMutability": "view",
      "type": "function"
    },
    {
      "inputs": [
        {
          "internalType": "address",
          "name": "_lender",
          "type": "address"
        }
      ],
      "name": "getLenderAssets",
      "outputs": [
        {
          "components": [
            {
              "internalType": "address",
              "name": "user",
              "type": "address"
            },
            {
              "internalType": "address",
              "name": "token",
              "type": "address"
            },
            {
              "internalType": "uint256",
              "name": "lentQty",
              "type": "uint256"
            },
            {
              "internalType": "uint256",
              "name": "borrowQty",
              "type": "uint256"
            },
            {
              "internalType": "uint256",
              "name": "lentApy",
              "type": "uint256"
            },
            {
              "internalType": "uint256",
              "name": "borrowApy",
              "type": "uint256"
            },
            {
              "internalType": "uint256",
              "name": "lendStartTimeStamp",
              "type": "uint256"
            },
            {
              "internalType": "uint256",
              "name": "borrowStartTimeStamp",
              "type": "uint256"
            }
          ],
          "internalType": "struct LendingPool.UserAsset[]",
          "name": "",
          "type": "tuple[]"
        }
      ],
      "stateMutability": "view",
      "type": "function"
    },
    {
      "inputs": [
        {
          "internalType": "address",
          "name": "_token",
          "type": "address"
        }
      ],
      "name": "getTotalTokenSupplyInReserves",
      "outputs": [
        {
          "internalType": "uint256",
          "name": "",
          "type": "uint256"
        }
      ],
      "stateMutability": "view",
      "type": "function"
    },
    {
      "inputs": [
        {
          "internalType": "address",
          "name": "_user",
          "type": "address"
        },
        {
          "internalType": "enum LendingPool.TxMode",
          "name": "_txmode",
          "type": "uint8"
        }
      ],
      "name": "getUserTotalAvailableBalanceInUSD",
      "outputs": [
        {
          "internalType": "uint256",
          "name": "",
          "type": "uint256"
        }
      ],
      "stateMutability": "view",
      "type": "function"
    },
    {
      "inputs": [
        {
          "internalType": "address",
          "name": "_borrower",
          "type": "address"
        },
        {
          "internalType": "address",
          "name": "_token",
          "type": "address"
        },
        {
          "internalType": "uint256",
          "name": "borrowStartTimeStamp",
          "type": "uint256"
        }
      ],
      "name": "interestAccrued",
      "outputs": [
        {
          "internalType": "uint256",
          "name": "",
          "type": "uint256"
        }
      ],
      "stateMutability": "view",
      "type": "function"
    },
    {
      "inputs": [
        {
          "internalType": "address",
          "name": "_lender",
          "type": "address"
        },
        {
          "internalType": "address",
          "name": "_token",
          "type": "address"
        },
        {
          "internalType": "uint256",
          "name": "lendStartTimeStamp",
          "type": "uint256"
        }
      ],
      "name": "interestEarned",
      "outputs": [
        {
          "internalType": "uint256",
          "name": "",
          "type": "uint256"
        }
      ],
      "stateMutability": "view",
      "type": "function"
    },
    {
      "inputs": [
        {
          "internalType": "address",
          "name": "_borrower",
          "type": "address"
        },
        {
          "internalType": "address",
          "name": "_token",
          "type": "address"
        }
      ],
      "name": "isTokenBorrowed",
      "outputs": [
        {
          "internalType": "bool",
          "name": "",
          "type": "bool"
        }
      ],
      "stateMutability": "view",
      "type": "function"
    },
    {
      "inputs": [
        {
          "internalType": "address",
          "name": "_token",
          "type": "address"
        }
      ],
      "name": "isTokenInReserve",
      "outputs": [
        {
          "internalType": "bool",
          "name": "",
          "type": "bool"
        }
      ],
      "stateMutability": "view",
      "type": "function"
    },
    {
      "inputs": [
        {
          "internalType": "address",
          "name": "_token",
          "type": "address"
        },
        {
          "internalType": "uint256",
          "name": "_amount",
          "type": "uint256"
        }
      ],
      "name": "lend",
      "outputs": [],
      "stateMutability": "payable",
      "type": "function"
    },
    {
      "inputs": [
        {
          "internalType": "address",
          "name": "",
          "type": "address"
        },
        {
          "internalType": "uint256",
          "name": "",
          "type": "uint256"
        }
      ],
      "name": "lenderAssets",
      "outputs": [
        {
          "internalType": "address",
          "name": "user",
          "type": "address"
        },
        {
          "internalType": "address",
          "name": "token",
          "type": "address"
        },
        {
          "internalType": "uint256",
          "name": "lentQty",
          "type": "uint256"
        },
        {
          "internalType": "uint256",
          "name": "borrowQty",
          "type": "uint256"
        },
        {
          "internalType": "uint256",
          "name": "lentApy",
          "type": "uint256"
        },
        {
          "internalType": "uint256",
          "name": "borrowApy",
          "type": "uint256"
        },
        {
          "internalType": "uint256",
          "name": "lendStartTimeStamp",
          "type": "uint256"
        },
        {
          "internalType": "uint256",
          "name": "borrowStartTimeStamp",
          "type": "uint256"
        }
      ],
      "stateMutability": "view",
      "type": "function"
    },
    {
      "inputs": [
        {
          "internalType": "address",
          "name": "_token",
          "type": "address"
        },
        {
          "internalType": "uint256",
          "name": "_amount",
          "type": "uint256"
        }
      ],
      "name": "repay",
      "outputs": [],
      "stateMutability": "nonpayable",
      "type": "function"
    },
    {
      "inputs": [
        {
          "internalType": "uint256",
          "name": "",
          "type": "uint256"
        }
      ],
      "name": "reserveAssets",
      "outputs": [
        {
          "internalType": "address",
          "name": "",
          "type": "address"
        }
      ],
      "stateMutability": "view",
      "type": "function"
    },
    {
      "inputs": [
        {
          "internalType": "address",
          "name": "",
          "type": "address"
        }
      ],
      "name": "reserves",
      "outputs": [
        {
          "internalType": "uint256",
          "name": "",
          "type": "uint256"
        }
      ],
      "stateMutability": "view",
      "type": "function"
    },
    {
      "inputs": [
        {
          "internalType": "address",
          "name": "_token",
          "type": "address"
        },
        {
          "internalType": "uint256",
          "name": "_amount",
          "type": "uint256"
        }
      ],
      "name": "withdraw",
      "outputs": [
        {
          "internalType": "bool",
          "name": "",
          "type": "bool"
        }
      ],
      "stateMutability": "payable",
      "type": "function"
    },
    {
      "stateMutability": "payable",
      "type": "receive"
    }
  ],
  "bytecode": "0x60806040523480156200001157600080fd5b5060405162003b2b38038062003b2b833981016040819052620000349162000099565b6001600081905580546001600160a01b039485166001600160a01b031991821617909155600280549385169382169390931790925560038054919093169116179055620000e3565b80516001600160a01b03811681146200009457600080fd5b919050565b600080600060608486031215620000af57600080fd5b620000ba846200007c565b9250620000ca602085016200007c565b9150620000da604085016200007c565b90509250925092565b613a3880620000f36000396000f3fe6080604052600436106101185760003560e01c8063a2fb342d116100a0578063ddd44c9611610064578063ddd44c9614610381578063e59b785d146103a1578063e94b8590146103c1578063f3fef3a3146103e1578063f4234c8f146103f457600080fd5b8063a2fb342d146102e1578063b36d4ec7146102f4578063d0278dcd14610314578063d219ad8f14610334578063d66bd5241461035457600080fd5b806322867d78116100e757806322867d7814610219578063243105981461023b57806337973e5f1461025b5780634b8a35291461029357806388c29474146102b357600080fd5b80630792d9e9146101245780630f11c9a6146101595780631fe67ce61461018657806320d6cc5d146101b357600080fd5b3661011f57005b600080fd5b34801561013057600080fd5b5061014461013f366004613562565b61042a565b60405190151581526020015b60405180910390f35b34801561016557600080fd5b50610179610174366004613540565b6104c9565b60405161015091906137dc565b34801561019257600080fd5b506101a66101a1366004613540565b610883565b604051610150919061383e565b3480156101bf57600080fd5b506101d36101ce36600461360c565b610951565b604080516001600160a01b03998a168152989097166020890152958701949094526060860192909252608085015260a084015260c083015260e082015261010001610150565b34801561022557600080fd5b5061023961023436600461360c565b6109bf565b005b34801561024757600080fd5b50610144610256366004613540565b6110a7565b34801561026757600080fd5b5061027b6102763660046136fa565b611115565b6040516001600160a01b039091168152602001610150565b34801561029f57600080fd5b506101446102ae36600461360c565b61113f565b3480156102bf57600080fd5b506102d36102ce366004613562565b6118f2565b604051908152602001610150565b6102396102ef36600461360c565b6119be565b34801561030057600080fd5b506101a661030f366004613540565b61235f565b34801561032057600080fd5b506102d361032f366004613595565b61241f565b34801561034057600080fd5b506102d361034f3660046135d1565b6124e3565b34801561036057600080fd5b506102d361036f366004613540565b60046020526000908152604090205481565b34801561038d57600080fd5b506102d361039c366004613562565b612894565b3480156103ad57600080fd5b506101d36103bc36600461360c565b612960565b3480156103cd57600080fd5b506102d36103dc366004613595565b61297c565b6101446103ef36600461360c565b612a49565b34801561040057600080fd5b506102d361040f366004613540565b6001600160a01b031660009081526004602052604090205490565b6001600160a01b038216600090815260076020526040812054815b818110156104bc576001600160a01b0385811660009081526007602052604090208054918616918390811061047c5761047c6139d6565b60009182526020909120600160089092020101546001600160a01b031614156104aa576001925050506104c3565b806104b481613979565b915050610445565b5060009150505b92915050565b60606001600160a01b0382166105185760405162461bcd60e51b815260206004820152600f60248201526e496e76616c6964206164647265737360881b60448201526064015b60405180910390fd5b60006105258360006124e3565b60055490915060008167ffffffffffffffff811115610546576105466139ec565b6040519080825280602002602001820160405280156105a457816020015b610591604051806060016040528060006001600160a01b0316815260200160008152602001600081525090565b8152602001906001900390816105645790505b5090506000805b83811015610878576000600582815481106105c8576105c86139d6565b600091825260209091200154600254604051630dd10adb60e21b81526001600160a01b039283166004820181905293509116906337442b6c9060240160206040518083038186803b15801561061c57600080fd5b505afa158015610630573d6000803e3d6000fd5b505050506040513d601f19601f820116820180604052508101906106549190613636565b156108655760035460405163012721ed60e71b81526001600160a01b038381166004830152602482018990526000921690637ae2b5c7908290639390f6809060440160206040518083038186803b1580156106ae57600080fd5b505afa1580156106c2573d6000803e3d6000fd5b505050506040513d601f19601f820116820180604052508101906106e69190613713565b6001600160a01b03851660009081526004602052604090205461071290670de0b6b3a7640000906138f5565b6040516001600160e01b031960e085901b1681526004810192909252602482015260440160206040518083038186803b15801561074e57600080fd5b505afa158015610762573d6000803e3d6000fd5b505050506040513d601f19601f820116820180604052508101906107869190613713565b90508015610863576040518060600160405280836001600160a01b03168152602001828152602001600260009054906101000a90046001600160a01b03166001600160a01b031663602839db6040518163ffffffff1660e01b815260040160206040518083038186803b1580156107fc57600080fd5b505afa158015610810573d6000803e3d6000fd5b505050506040513d601f19601f820116820180604052508101906108349190613713565b815250858581518110610849576108496139d6565b6020026020010181905250838061085f90613979565b9450505b505b508061087081613979565b9150506105ab565b509095945050505050565b6001600160a01b0381166000908152600760209081526040808320805482518185028101850190935280835260609492939192909184015b8282101561094657600084815260209081902060408051610100810182526008860290920180546001600160a01b039081168452600180830154909116848601526002820154928401929092526003810154606084015260048101546080840152600581015460a0840152600681015460c08401526007015460e083015290835290920191016108bb565b505050509050919050565b6007602052816000526040600020818154811061096d57600080fd5b6000918252602090912060089091020180546001820154600283015460038401546004850154600586015460068701546007909701546001600160a01b03968716995094909516965091949093919288565b6109c7613136565b3360008181526006602052604081205484915b81811015610ad657610a34848460066000886001600160a01b03166001600160a01b031681526020019081526020016000208481548110610a1d57610a1d6139d6565b90600052602060002090600802016006015461241f565b6001600160a01b0385166000908152600660205260409020805483908110610a5e57610a5e6139d6565b90600052602060002090600802016002016000828254610a7e91906138dd565b90915550506001600160a01b0384166000908152600660205260409020805442919083908110610ab057610ab06139d6565b600091825260209091206006600890920201015580610ace81613979565b9150506109da565b503360008181526007602052604081205487915b81811015610be657610b44848460076000886001600160a01b03166001600160a01b031681526020019081526020016000208481548110610b2d57610b2d6139d6565b90600052602060002090600802016007015461297c565b6001600160a01b0385166000908152600760205260409020805483908110610b6e57610b6e6139d6565b90600052602060002090600802016003016000828254610b8e91906138dd565b90915550506001600160a01b0384166000908152600760205260409020805442919083908110610bc057610bc06139d6565b600091825260209091206007600890920201015580610bde81613979565b915050610aea565b5033610bf2818a61042a565b610c4a5760405162461bcd60e51b815260206004820152602360248201527f546f6b656e20776173206e6f7420626f72726f7765642c2043616e277420526560448201526270617960e81b606482015260840161050f565b610c54818a612894565b881115610cb95760405162461bcd60e51b815260206004820152602d60248201527f526570617920416d6f756e742073686f756c64206c657373207468616e20626f60448201526c1c9c9bddd95908185b5bdd5b9d609a1b606482015260840161050f565b610cc58982308b613190565b6001600160a01b038916600090815260046020526040812080548a9290610ced9084906138dd565b90915550506001600160a01b038116600090815260076020526040812054905b8181101561104f576001600160a01b0383811660009081526007602052604090208054918d169183908110610d4457610d446139d6565b60009182526020909120600160089092020101546001600160a01b03161415610dfc576001600160a01b038316600090815260076020526040902080548b919083908110610d9457610d946139d6565b90600052602060002090600802016003016000828254610db49190613936565b90915550506001600160a01b0383166000908152600760205260409020805442919083908110610de657610de66139d6565b9060005260206000209060080201600701819055505b6001600160a01b0383166000908152600760205260409020805482908110610e2657610e266139d6565b9060005260206000209060080201600301546000141561103d576001600160a01b0383166000908152600760205260409020805482908110610e6a57610e6a6139d6565b60009182526020808320600890920290910180546001600160a01b0319908116825560018083018054909216909155600282018490556003820184905560048201849055600582018490556006820184905560079182018490556001600160a01b03871684529152604090912090610ee29084613936565b81548110610ef257610ef26139d6565b906000526020600020906008020160076000856001600160a01b03166001600160a01b031681526020019081526020016000208281548110610f3657610f366139d6565b60009182526020808320845460089093020180546001600160a01b03199081166001600160a01b03948516178255600180870154908301805490921690851617905560028086015490820155600380860154908201556004808601549082015560058086015490820155600680860154908201556007948501549085015590861682529190915260409020805480610fd057610fd06139c0565b60008281526020812060086000199093019283020180546001600160a01b03199081168255600182810180549092169091556002820183905560038201839055600482018390556005820183905560068201839055600790910191909155915561103a9083613936565b91505b8061104781613979565b915050610d0d565b50888a6001600160a01b0316836001600160a01b03167f05f2eeda0e08e4b437f487c8d7d29b14537d15e3488170dc3de5dbdf8dac468460405160405180910390a450505050505050506110a36001600055565b5050565b600554600090815b8181101561110b57836001600160a01b0316600582815481106110d4576110d46139d6565b6000918252602090912001546001600160a01b031614156110f9575060019392505050565b8061110381613979565b9150506110af565b5060009392505050565b6005818154811061112557600080fd5b6000918252602090912001546001600160a01b0316905081565b6000611149613136565b3360008181526006602052604081205485915b818110156112415761119f848460066000886001600160a01b03166001600160a01b031681526020019081526020016000208481548110610a1d57610a1d6139d6565b6001600160a01b03851660009081526006602052604090208054839081106111c9576111c96139d6565b906000526020600020906008020160020160008282546111e991906138dd565b90915550506001600160a01b038416600090815260066020526040902080544291908390811061121b5761121b6139d6565b60009182526020909120600660089092020101558061123981613979565b91505061115c565b503360008181526007602052604081205488915b8181101561133a57611298848460076000886001600160a01b03166001600160a01b031681526020019081526020016000208481548110610b2d57610b2d6139d6565b6001600160a01b03851660009081526007602052604090208054839081106112c2576112c26139d6565b906000526020600020906008020160030160008282546112e291906138dd565b90915550506001600160a01b0384166000908152600760205260409020805442919083908110611314576113146139d6565b60009182526020909120600760089092020101558061133281613979565b915050611255565b506003546040516325d07a9560e01b81526001600160a01b038b81166004830152602482018b905233926000929116906325d07a959060440160206040518083038186803b15801561138b57600080fd5b505afa15801561139f573d6000803e3d6000fd5b505050506040513d601f19601f820116820180604052508101906113c39190613713565b905060006113d28360006124e3565b9050808211156114245760405162461bcd60e51b815260206004820152601c60248201527f4e6f7420656e6f7567682062616c616e636520746f20626f72726f7700000000604482015260640161050f565b6001600160a01b038c166000908152600460205260409020548b11156114a15760405162461bcd60e51b815260206004820152602c60248201527f4e6f7420656e6f7567682071747920696e20746865207265736572766520706f60448201526b6f6c20746f20626f72726f7760a01b606482015260840161050f565b6001600160a01b0383166114ef5760405162461bcd60e51b81526020600482015260156024820152745472616e73666572204e6f7420506f737369626c6560581b604482015260640161050f565b6114f88c613201565b61166b576000604051806101000160405280856001600160a01b031681526020018e6001600160a01b03168152602001600081526020018d815260200160008152602001600260009054906101000a90046001600160a01b03166001600160a01b031663602839db6040518163ffffffff1660e01b815260040160206040518083038186803b15801561158a57600080fd5b505afa15801561159e573d6000803e3d6000fd5b505050506040513d601f19601f820116820180604052508101906115c29190613713565b815260006020808301829052426040938401526001600160a01b038089168352600780835284842080546001818101835591865294849020875160089096020180549584166001600160a01b0319968716178155938701519084018054919093169416939093179055918301516002830155606083015160038301556080830151600483015560a0830151600583015560c0830151600683015560e09092015191015550611861565b6001600160a01b038316600090815260076020526040812054905b8181101561185e578d6001600160a01b031660076000876001600160a01b03166001600160a01b0316815260200190815260200160002082815481106116ce576116ce6139d6565b60009182526020909120600160089092020101546001600160a01b0316141561184c576001600160a01b038516600090815260076020526040902080548e91908390811061171e5761171e6139d6565b9060005260206000209060080201600301600082825461173e91906138dd565b90915550506002546040805163602839db60e01b815290516001600160a01b039092169163602839db91600480820192602092909190829003018186803b15801561178857600080fd5b505afa15801561179c573d6000803e3d6000fd5b505050506040513d601f19601f820116820180604052508101906117c09190613713565b6001600160a01b03861660009081526007602052604090208054839081106117ea576117ea6139d6565b9060005260206000209060080201600501819055504260076000876001600160a01b03166001600160a01b031681526020019081526020016000208281548110611836576118366139d6565b9060005260206000209060080201600701819055505b8061185681613979565b915050611686565b50505b6001600160a01b038c16600090815260046020526040812080548d9290611889908490613936565b9091555061189a90508c848d613287565b8a8c6001600160a01b0316846001600160a01b03167f312a5e5e1079f5dda4e95dbbd0b908b291fd5b992ef22073643ab691572c5b5260405160405180910390a4600199505050505050505050506104c36001600055565b6001600160a01b038216600090815260066020526040812054815b818110156104bc576001600160a01b03858116600090815260066020526040902080549186169183908110611944576119446139d6565b60009182526020909120600160089092020101546001600160a01b031614156119ac576001600160a01b0385166000908152600660205260409020805482908110611991576119916139d6565b906000526020600020906008020160020154925050506104c3565b806119b681613979565b91505061190d565b6119c6613136565b600154604051631ee144a160e31b81526001600160a01b038481166004830152339260009291169063f70a25089060240160206040518083038186803b158015611a0f57600080fd5b505afa158015611a23573d6000803e3d6000fd5b505050506040513d601f19601f82011682018060405250810190611a479190613636565b611a52576000611a55565b60015b600154604051631ee144a160e31b81526001600160a01b0387811660048301529293506000929091169063f70a25089060240160206040518083038186803b158015611aa057600080fd5b505afa158015611ab4573d6000803e3d6000fd5b505050506040513d601f19601f82011682018060405250810190611ad89190613636565b611ae3576001611ae6565b60005b6001546040516364d9729160e11b81526001600160a01b0388811660048301529293506000929091169063c9b2e5229060240160006040518083038186803b158015611b3157600080fd5b505afa158015611b45573d6000803e3d6000fd5b505050506040513d6000823e601f3d908101601f19168201604052611b6d9190810190613658565b600254604051630944076f60e21b81526001600160a01b0389811660048301529293509116906325101dbc9060240160206040518083038186803b158015611bb457600080fd5b505afa158015611bc8573d6000803e3d6000fd5b505050506040513d601f19601f82011682018060405250810190611bec9190613636565b611e075760025460408051632e0f262560e01b815290516001600160a01b0390921691634c2fad069189918691889160009160019189918991632e0f262591600480820192602092909190829003018186803b158015611c4b57600080fd5b505afa158015611c5f573d6000803e3d6000fd5b505050506040513d601f19601f82011682018060405250810190611c839190613713565b600260009054906101000a90046001600160a01b03166001600160a01b0316631500c2ff6040518163ffffffff1660e01b815260040160206040518083038186803b158015611cd157600080fd5b505afa158015611ce5573d6000803e3d6000fd5b505050506040513d601f19601f82011682018060405250810190611d099190613713565b600260009054906101000a90046001600160a01b03166001600160a01b03166390a8ae9b6040518163ffffffff1660e01b815260040160206040518083038186803b158015611d5757600080fd5b505afa158015611d6b573d6000803e3d6000fd5b505050506040513d601f19601f82011682018060405250810190611d8f9190613713565b6040518a63ffffffff1660e01b8152600401611db399989796959493929190613774565b602060405180830381600087803b158015611dcd57600080fd5b505af1158015611de1573d6000803e3d6000fd5b505050506040513d601f19601f82011682018060405250810190611e059190613636565b505b600154604051631ee144a160e31b81526001600160a01b0388811660048301529091169063f70a25089060240160206040518083038186803b158015611e4c57600080fd5b505afa158015611e60573d6000803e3d6000fd5b505050506040513d601f19601f82011682018060405250810190611e849190613636565b15611f1857604051600090309034908381818185875af1925050503d8060008114611ecb576040519150601f19603f3d011682016040523d82523d6000602084013e611ed0565b606091505b5050905080611f125760405162461bcd60e51b815260206004820152600e60248201526d11195c1bdcda5d0819985a5b195960921b604482015260640161050f565b50611f24565b611f2486853088613190565b6001600160a01b03861660009081526004602052604081208054879290611f4c9084906138dd565b90915550506001600160a01b038416600090815260066020526040902054611f73876132bc565b6120ea576000604051806101000160405280876001600160a01b03168152602001896001600160a01b0316815260200188815260200160008152602001600260009054906101000a90046001600160a01b03166001600160a01b0316635b72a33a6040518163ffffffff1660e01b815260040160206040518083038186803b158015611ffe57600080fd5b505afa158015612012573d6000803e3d6000fd5b505050506040513d601f19601f820116820180604052508101906120369190613713565b8152600060208083018290524260408085019190915260609384018390526001600160a01b03808c168452600680845282852080546001818101835591875295859020885160089097020180549684166001600160a01b031997881617815594880151908501805491909316951694909417905584015160028201559183015160038301556080830151600483015560a0830151600583015560c08301519082015560e090910151600790910155506122b6565b60005b818110156122b4576001600160a01b0386811660009081526006602052604090208054918a169183908110612124576121246139d6565b60009182526020909120600160089092020101546001600160a01b031614156122a2576001600160a01b0386166000908152600660205260409020805488919083908110612174576121746139d6565b9060005260206000209060080201600201600082825461219491906138dd565b909155505060025460408051632db9519d60e11b815290516001600160a01b0390921691635b72a33a91600480820192602092909190829003018186803b1580156121de57600080fd5b505afa1580156121f2573d6000803e3d6000fd5b505050506040513d601f19601f820116820180604052508101906122169190613713565b6001600160a01b0387166000908152600660205260409020805483908110612240576122406139d6565b9060005260206000209060080201600401819055504260066000886001600160a01b03166001600160a01b03168152602001908152602001600020828154811061228c5761228c6139d6565b9060005260206000209060080201600601819055505b806122ac81613979565b9150506120ed565b505b6122bf876110a7565b61230f57600580546001810182556000919091527f036b6384b5eca791c62761152d0c79bb0604c104a5fb6f4eb0703f3154bb3db00180546001600160a01b0319166001600160a01b0389161790555b85876001600160a01b0316866001600160a01b03167f11dd72a5d477527ee1cbe309212bb368745a98cf1dc3befcac7eef4988a957c260405160405180910390a450505050506110a36001600055565b6001600160a01b038116600090815260066020908152604080832080548251818502810185019093528083526060949293919290918401821561094657600084815260209081902060408051610100810182526008860290920180546001600160a01b039081168452600180830154909116848601526002820154928401929092526003810154606084015260048101546080840152600581015460a0840152600681015460c08401526007015460e083015290835290920191016108bb565b6003546001600160a01b03838116600090815260046020819052604080832054905163364d04bd60e21b815291820186905260248201529092670de0b6b3a764000092169063d93412f49060440160206040518083038186803b15801561248557600080fd5b505afa158015612499573d6000803e3d6000fd5b505050506040513d601f19601f820116820180604052508101906124bd9190613713565b6124c786866118f2565b6124d19190613917565b6124db91906138f5565b949350505050565b6001600160a01b03821660009081526006602052604081205481908190815b8181101561264c576003546001600160a01b038881166000908152600660205260409020805491909216916325d07a959184908110612543576125436139d6565b906000526020600020906008020160010160009054906101000a90046001600160a01b0316600660008b6001600160a01b03166001600160a01b03168152602001908152602001600020848154811061259e5761259e6139d6565b60009182526020909120600260089092020101546040516001600160e01b031960e085901b1681526001600160a01b039092166004830152602482015260440160206040518083038186803b1580156125f657600080fd5b505afa15801561260a573d6000803e3d6000fd5b505050506040513d601f19601f8201168201806040525081019061262e9190613713565b61263890856138dd565b93508061264481613979565b915050612502565b506001600160a01b038616600090815260076020526040812054905b818110156127b2576003546001600160a01b038981166000908152600760205260409020805491909216916325d07a9591849081106126a9576126a96139d6565b906000526020600020906008020160010160009054906101000a90046001600160a01b0316600760008c6001600160a01b03166001600160a01b031681526020019081526020016000208481548110612704576127046139d6565b60009182526020909120600360089092020101546040516001600160e01b031960e085901b1681526001600160a01b039092166004830152602482015260440160206040518083038186803b15801561275c57600080fd5b505afa158015612770573d6000803e3d6000fd5b505050506040513d601f19601f820116820180604052508101906127949190613713565b61279e90856138dd565b9350806127aa81613979565b915050612668565b5060008660018111156127c7576127c76139aa565b141561287f57826064600260009054906101000a90046001600160a01b03166001600160a01b0316631500c2ff6040518163ffffffff1660e01b815260040160206040518083038186803b15801561281e57600080fd5b505afa158015612832573d6000803e3d6000fd5b505050506040513d601f19601f820116820180604052508101906128569190613713565b6128609087613917565b61286a91906138f5565b6128749190613936565b9450505050506104c3565b6128898385613936565b979650505050505050565b6001600160a01b038216600090815260076020526040812054815b818110156104bc576001600160a01b038581166000908152600760205260409020805491861691839081106128e6576128e66139d6565b60009182526020909120600160089092020101546001600160a01b0316141561294e576001600160a01b0385166000908152600760205260409020805482908110612933576129336139d6565b906000526020600020906008020160030154925050506104c3565b8061295881613979565b9150506128af565b6006602052816000526040600020818154811061096d57600080fd5b6000806129898585612894565b6003546001600160a01b03868116600090815260046020819052604080832054905163364d04bd60e21b815291820189905260248201529394509291169063d93412f49060440160206040518083038186803b1580156129e857600080fd5b505afa1580156129fc573d6000803e3d6000fd5b505050506040513d601f19601f82011682018060405250810190612a209190613713565b9050670de0b6b3a7640000612a358284613917565b612a3f91906138f5565b9695505050505050565b6000612a53613136565b33612a5d846132bc565b612a9b5760405162461bcd60e51b815260206004820152600f60248201526e2737ba103a37b5b2b71037bbb732b960891b604482015260640161050f565b6003546000906001600160a01b0316639390f68086612abb8560016124e3565b6040516001600160e01b031960e085901b1681526001600160a01b039092166004830152602482015260440160206040518083038186803b158015612aff57600080fd5b505afa158015612b13573d6000803e3d6000fd5b505050506040513d601f19601f82011682018060405250810190612b379190613713565b612b4990670de0b6b3a7640000613917565b905083811015612ba55760405162461bcd60e51b815260206004820152602160248201527f43616e6e6f74207769746864726177206d6f7265207468616e2062616c616e636044820152606560f81b606482015260840161050f565b6001600160a01b038516600090815260046020526040902054841115612c0d5760405162461bcd60e51b815260206004820152601a60248201527f4e6f7420656e6f7567682071747920746f207769746864726177000000000000604482015260640161050f565b6001600160a01b03851660009081526004602052604081208054869290612c35908490613936565b90915550506001600160a01b038216600090815260066020526040812054905b81811015612f9c576001600160a01b03848116600090815260066020526040902080549189169183908110612c8c57612c8c6139d6565b60009182526020909120600160089092020101546001600160a01b03161415612d44576001600160a01b0384166000908152600660205260409020805487919083908110612cdc57612cdc6139d6565b90600052602060002090600802016002016000828254612cfc9190613936565b90915550506001600160a01b0384166000908152600660205260409020805442919083908110612d2e57612d2e6139d6565b9060005260206000209060080201600601819055505b6001600160a01b0384166000908152600660205260409020805482908110612d6e57612d6e6139d6565b90600052602060002090600802016002015460001415612f8a576001600160a01b0384166000908152600660205260409020805482908110612db257612db26139d6565b60009182526020808320600890920290910180546001600160a01b031990811682556001808301805490921690915560028201849055600382018490556004820184905560058201849055600680830185905560079092018490556001600160a01b03881684529152604090912090612e2b9084613936565b81548110612e3b57612e3b6139d6565b906000526020600020906008020160066000866001600160a01b03166001600160a01b031681526020019081526020016000208281548110612e7f57612e7f6139d6565b60009182526020808320845460089093020180546001600160a01b03199081166001600160a01b0394851617825560018087015490830180549092169085161790556002808601549082015560038086015490820155600480860154908201556005808601549082015560068086015481830155600795860154959091019490945590871682529190915260409020805480612f1d57612f1d6139c0565b60008281526020812060086000199093019283020180546001600160a01b031990811682556001828101805490921690915560028201839055600382018390556004820183905560058201839055600682018390556007909101919091559155612f879083613936565b91505b80612f9481613979565b915050612c55565b50600154604051631ee144a160e31b81526001600160a01b0388811660048301529091169063f70a25089060240160206040518083038186803b158015612fe257600080fd5b505afa158015612ff6573d6000803e3d6000fd5b505050506040513d601f19601f8201168201806040525081019061301a9190613636565b156130d9576000836001600160a01b03168660405160006040518083038185875af1925050503d806000811461306c576040519150601f19603f3d011682016040523d82523d6000602084013e613071565b606091505b50509050806130d35760405162461bcd60e51b815260206004820152602860248201527f5472616e7366657220746f204c656e6465722077616c6c6574206e6f7420737560448201526718d8d95cdcd99d5b60c21b606482015260840161050f565b506130e4565b6130e4868487613287565b84866001600160a01b0316846001600160a01b03167f9b1bfa7fa9ee420a16e124f794c35ac9f90472acc99140eb2f6447c714cad8eb60405160405180910390a4600193505050506104c36001600055565b600260005414156131895760405162461bcd60e51b815260206004820152601f60248201527f5265656e7472616e637947756172643a207265656e7472616e742063616c6c00604482015260640161050f565b6002600055565b6040516001600160a01b03808516602483015283166044820152606481018290526131fb9085906323b872dd60e01b906084015b60408051601f198184030181529190526020810180516001600160e01b03166001600160e01b031990931692909217909152613342565b50505050565b33600090815260076020526040812054815b8181101561110b5733600090815260076020526040902080546001600160a01b038616919083908110613248576132486139d6565b60009182526020909120600160089092020101546001600160a01b03161415613275575060019392505050565b8061327f81613979565b915050613213565b6040516001600160a01b0383166024820152604481018290526132b790849063a9059cbb60e01b906064016131c4565b505050565b33600090815260066020526040812054815b8181101561110b5733600090815260066020526040902080546001600160a01b038616919083908110613303576133036139d6565b60009182526020909120600160089092020101546001600160a01b03161415613330575060019392505050565b8061333a81613979565b9150506132ce565b6000613397826040518060400160405280602081526020017f5361666545524332303a206c6f772d6c6576656c2063616c6c206661696c6564815250856001600160a01b03166134149092919063ffffffff16565b8051909150156132b757808060200190518101906133b59190613636565b6132b75760405162461bcd60e51b815260206004820152602a60248201527f5361666545524332303a204552433230206f7065726174696f6e20646964206e6044820152691bdd081cdd58d8d9595960b21b606482015260840161050f565b60606124db848460008585600080866001600160a01b0316858760405161343b9190613758565b60006040518083038185875af1925050503d8060008114613478576040519150601f19603f3d011682016040523d82523d6000602084013e61347d565b606091505b509150915061288987838387606083156134f55782516134ee576001600160a01b0385163b6134ee5760405162461bcd60e51b815260206004820152601d60248201527f416464726573733a2063616c6c20746f206e6f6e2d636f6e7472616374000000604482015260640161050f565b50816124db565b6124db838381511561350a5781518083602001fd5b8060405162461bcd60e51b815260040161050f91906138ca565b80356001600160a01b038116811461353b57600080fd5b919050565b60006020828403121561355257600080fd5b61355b82613524565b9392505050565b6000806040838503121561357557600080fd5b61357e83613524565b915061358c60208401613524565b90509250929050565b6000806000606084860312156135aa57600080fd5b6135b384613524565b92506135c160208501613524565b9150604084013590509250925092565b600080604083850312156135e457600080fd5b6135ed83613524565b915060208301356002811061360157600080fd5b809150509250929050565b6000806040838503121561361f57600080fd5b61362883613524565b946020939093013593505050565b60006020828403121561364857600080fd5b8151801515811461355b57600080fd5b60006020828403121561366a57600080fd5b815167ffffffffffffffff8082111561368257600080fd5b818401915084601f83011261369657600080fd5b8151818111156136a8576136a86139ec565b604051601f8201601f19908116603f011681019083821181831017156136d0576136d06139ec565b816040528281528760208487010111156136e957600080fd5b61288983602083016020880161394d565b60006020828403121561370c57600080fd5b5035919050565b60006020828403121561372557600080fd5b5051919050565b6000815180845261374481602086016020860161394d565b601f01601f19169290920160200192915050565b6000825161376a81846020870161394d565b9190910192915050565b6001600160a01b038a168152881515602082015287151560408201528615156060820152851515608082015261012060a082018190526000906137b98382018861372c565b60c0840196909652505060e0810192909252610100909101529695505050505050565b602080825282518282018190526000919060409081850190868401855b8281101561383157815180516001600160a01b03168552868101518786015285015185850152606090930192908501906001016137f9565b5091979650505050505050565b602080825282518282018190526000919060409081850190868401855b8281101561383157815180516001600160a01b0390811686528782015116878601528581015186860152606080820151908601526080808201519086015260a0808201519086015260c0808201519086015260e09081015190850152610100909301929085019060010161385b565b60208152600061355b602083018461372c565b600082198211156138f0576138f0613994565b500190565b60008261391257634e487b7160e01b600052601260045260246000fd5b500490565b600081600019048311821515161561393157613931613994565b500290565b60008282101561394857613948613994565b500390565b60005b83811015613968578181015183820152602001613950565b838111156131fb5750506000910152565b600060001982141561398d5761398d613994565b5060010190565b634e487b7160e01b600052601160045260246000fd5b634e487b7160e01b600052602160045260246000fd5b634e487b7160e01b600052603160045260246000fd5b634e487b7160e01b600052603260045260246000fd5b634e487b7160e01b600052604160045260246000fdfea26469706673582212206785f48949de11882f850fd624fd64d3b51b6707190bc1df42389ec06c7ccb1f64736f6c63430008060033",
  "linkReferences": {},
  "deployedLinkReferences": {}
}