{
  "_format": "hh-sol-artifact-1",
  "contractName": "LendingPool",
  "sourceName": "contracts/LendingPool.sol",
  "abi": [
    {
      "inputs": [
        {
          "internalType": "contract AddressToTokenMap",
          "name": "_addressToTokenMapAddress",
          "type": "address"
        },
        {
          "internalType": "contract LendingConfig",
          "name": "_lendingConfigAddress",
          "type": "address"
        },
        {
          "internalType": "uint256",
          "name": "_interestRate",
          "type": "uint256"
        },
        {
          "internalType": "uint256",
          "name": "_borrowRate",
          "type": "uint256"
        }
      ],
      "stateMutability": "nonpayable",
      "type": "constructor"
    },
    {
      "anonymous": false,
      "inputs": [
        {
          "indexed": false,
          "internalType": "address",
          "name": "lender",
          "type": "address"
        },
        {
          "indexed": false,
          "internalType": "address",
          "name": "_token",
          "type": "address"
        },
        {
          "indexed": false,
          "internalType": "uint256",
          "name": "_amount",
          "type": "uint256"
        }
      ],
      "name": "TransferAsset",
      "type": "event"
    },
    {
      "inputs": [],
      "name": "BORROW_DURATION_30",
      "outputs": [
        {
          "internalType": "uint32",
          "name": "",
          "type": "uint32"
        }
      ],
      "stateMutability": "view",
      "type": "function"
    },
    {
      "inputs": [],
      "name": "BORROW_DURATION_60",
      "outputs": [
        {
          "internalType": "uint32",
          "name": "",
          "type": "uint32"
        }
      ],
      "stateMutability": "view",
      "type": "function"
    },
    {
      "inputs": [],
      "name": "BORROW_DURATION_90",
      "outputs": [
        {
          "internalType": "uint32",
          "name": "",
          "type": "uint32"
        }
      ],
      "stateMutability": "view",
      "type": "function"
    },
    {
      "inputs": [],
      "name": "BORROW_RATE",
      "outputs": [
        {
          "internalType": "uint256",
          "name": "",
          "type": "uint256"
        }
      ],
      "stateMutability": "view",
      "type": "function"
    },
    {
      "inputs": [],
      "name": "BORROW_THRESHOLD",
      "outputs": [
        {
          "internalType": "uint256",
          "name": "",
          "type": "uint256"
        }
      ],
      "stateMutability": "view",
      "type": "function"
    },
    {
      "inputs": [],
      "name": "DECIMALS",
      "outputs": [
        {
          "internalType": "uint256",
          "name": "",
          "type": "uint256"
        }
      ],
      "stateMutability": "view",
      "type": "function"
    },
    {
      "inputs": [],
      "name": "INTEREST_RATE",
      "outputs": [
        {
          "internalType": "uint256",
          "name": "",
          "type": "uint256"
        }
      ],
      "stateMutability": "view",
      "type": "function"
    },
    {
      "inputs": [],
      "name": "LIQUIDATION_THRESHOLD",
      "outputs": [
        {
          "internalType": "uint256",
          "name": "",
          "type": "uint256"
        }
      ],
      "stateMutability": "view",
      "type": "function"
    },
    {
      "inputs": [
        {
          "internalType": "address",
          "name": "_token",
          "type": "address"
        },
        {
          "internalType": "uint256",
          "name": "_amount",
          "type": "uint256"
        }
      ],
      "name": "borrow",
      "outputs": [
        {
          "internalType": "bool",
          "name": "",
          "type": "bool"
        }
      ],
      "stateMutability": "nonpayable",
      "type": "function"
    },
    {
      "inputs": [
        {
          "internalType": "address",
          "name": "",
          "type": "address"
        },
        {
          "internalType": "uint256",
          "name": "",
          "type": "uint256"
        }
      ],
      "name": "borrowerAssets",
      "outputs": [
        {
          "internalType": "address",
          "name": "user",
          "type": "address"
        },
        {
          "internalType": "address",
          "name": "token",
          "type": "address"
        },
        {
          "internalType": "uint256",
          "name": "lentQty",
          "type": "uint256"
        },
        {
          "internalType": "uint256",
          "name": "borrowQty",
          "type": "uint256"
        },
        {
          "internalType": "uint256",
          "name": "lentApy",
          "type": "uint256"
        },
        {
          "internalType": "uint256",
          "name": "borrowApy",
          "type": "uint256"
        },
        {
          "internalType": "uint256",
          "name": "lendStartTimeStamp",
          "type": "uint256"
        },
        {
          "internalType": "uint256",
          "name": "borrowStartTimeStamp",
          "type": "uint256"
        }
      ],
      "stateMutability": "view",
      "type": "function"
    },
    {
      "inputs": [
        {
          "internalType": "address",
          "name": "_token",
          "type": "address"
        },
        {
          "internalType": "uint256",
          "name": "_amount",
          "type": "uint256"
        }
      ],
      "name": "getAmountInUSD",
      "outputs": [
        {
          "internalType": "uint256",
          "name": "",
          "type": "uint256"
        }
      ],
      "stateMutability": "view",
      "type": "function"
    },
    {
      "inputs": [
        {
          "internalType": "address",
          "name": "_borrower",
          "type": "address"
        }
      ],
      "name": "getAssetsToBorrow",
      "outputs": [
        {
          "components": [
            {
              "internalType": "address",
              "name": "token",
              "type": "address"
            },
            {
              "internalType": "uint256",
              "name": "borrowQty",
              "type": "uint256"
            },
            {
              "internalType": "uint256",
              "name": "borrowApy",
              "type": "uint256"
            }
          ],
          "internalType": "struct LendingPool.BorrowAsset[]",
          "name": "",
          "type": "tuple[]"
        }
      ],
      "stateMutability": "view",
      "type": "function"
    },
    {
      "inputs": [
        {
          "internalType": "address",
          "name": "_address",
          "type": "address"
        }
      ],
      "name": "getBalance",
      "outputs": [
        {
          "internalType": "uint256",
          "name": "",
          "type": "uint256"
        }
      ],
      "stateMutability": "view",
      "type": "function"
    },
    {
      "inputs": [
        {
          "internalType": "address",
          "name": "_borrower",
          "type": "address"
        },
        {
          "internalType": "address",
          "name": "_token",
          "type": "address"
        }
      ],
      "name": "getBorrowerAssetQty",
      "outputs": [
        {
          "internalType": "uint256",
          "name": "",
          "type": "uint256"
        }
      ],
      "stateMutability": "view",
      "type": "function"
    },
    {
      "inputs": [
        {
          "internalType": "address",
          "name": "_borrower",
          "type": "address"
        }
      ],
      "name": "getBorrowerAssets",
      "outputs": [
        {
          "components": [
            {
              "internalType": "address",
              "name": "user",
              "type": "address"
            },
            {
              "internalType": "address",
              "name": "token",
              "type": "address"
            },
            {
              "internalType": "uint256",
              "name": "lentQty",
              "type": "uint256"
            },
            {
              "internalType": "uint256",
              "name": "borrowQty",
              "type": "uint256"
            },
            {
              "internalType": "uint256",
              "name": "lentApy",
              "type": "uint256"
            },
            {
              "internalType": "uint256",
              "name": "borrowApy",
              "type": "uint256"
            },
            {
              "internalType": "uint256",
              "name": "lendStartTimeStamp",
              "type": "uint256"
            },
            {
              "internalType": "uint256",
              "name": "borrowStartTimeStamp",
              "type": "uint256"
            }
          ],
          "internalType": "struct LendingPool.UserAsset[]",
          "name": "",
          "type": "tuple[]"
        }
      ],
      "stateMutability": "view",
      "type": "function"
    },
    {
      "inputs": [],
      "name": "getContractETHBalance",
      "outputs": [
        {
          "internalType": "uint256",
          "name": "",
          "type": "uint256"
        }
      ],
      "stateMutability": "view",
      "type": "function"
    },
    {
      "inputs": [
        {
          "internalType": "address",
          "name": "_tokenAddress",
          "type": "address"
        }
      ],
      "name": "getCurrentTokenPrice",
      "outputs": [
        {
          "internalType": "uint256",
          "name": "",
          "type": "uint256"
        }
      ],
      "stateMutability": "view",
      "type": "function"
    },
    {
      "inputs": [
        {
          "internalType": "address",
          "name": "_lender",
          "type": "address"
        },
        {
          "internalType": "address",
          "name": "_token",
          "type": "address"
        }
      ],
      "name": "getLenderAssetQty",
      "outputs": [
        {
          "internalType": "uint256",
          "name": "",
          "type": "uint256"
        }
      ],
      "stateMutability": "view",
      "type": "function"
    },
    {
      "inputs": [
        {
          "internalType": "address",
          "name": "_lender",
          "type": "address"
        }
      ],
      "name": "getLenderAssets",
      "outputs": [
        {
          "components": [
            {
              "internalType": "address",
              "name": "user",
              "type": "address"
            },
            {
              "internalType": "address",
              "name": "token",
              "type": "address"
            },
            {
              "internalType": "uint256",
              "name": "lentQty",
              "type": "uint256"
            },
            {
              "internalType": "uint256",
              "name": "borrowQty",
              "type": "uint256"
            },
            {
              "internalType": "uint256",
              "name": "lentApy",
              "type": "uint256"
            },
            {
              "internalType": "uint256",
              "name": "borrowApy",
              "type": "uint256"
            },
            {
              "internalType": "uint256",
              "name": "lendStartTimeStamp",
              "type": "uint256"
            },
            {
              "internalType": "uint256",
              "name": "borrowStartTimeStamp",
              "type": "uint256"
            }
          ],
          "internalType": "struct LendingPool.UserAsset[]",
          "name": "",
          "type": "tuple[]"
        }
      ],
      "stateMutability": "view",
      "type": "function"
    },
    {
      "inputs": [
        {
          "internalType": "address",
          "name": "_token",
          "type": "address"
        }
      ],
      "name": "getSymbol",
      "outputs": [
        {
          "internalType": "string",
          "name": "",
          "type": "string"
        }
      ],
      "stateMutability": "view",
      "type": "function"
    },
    {
      "inputs": [
        {
          "internalType": "address",
          "name": "_address",
          "type": "address"
        },
        {
          "internalType": "address",
          "name": "_token",
          "type": "address"
        }
      ],
      "name": "getTokenBalance",
      "outputs": [
        {
          "internalType": "uint256",
          "name": "",
          "type": "uint256"
        }
      ],
      "stateMutability": "view",
      "type": "function"
    },
    {
      "inputs": [
        {
          "internalType": "address",
          "name": "_token",
          "type": "address"
        },
        {
          "internalType": "uint256",
          "name": "_usdAmount",
          "type": "uint256"
        }
      ],
      "name": "getTokensPerUSDAmount",
      "outputs": [
        {
          "internalType": "uint256",
          "name": "",
          "type": "uint256"
        }
      ],
      "stateMutability": "view",
      "type": "function"
    },
    {
      "inputs": [
        {
          "internalType": "address",
          "name": "_user",
          "type": "address"
        }
      ],
      "name": "getUserTotalAvailableBalanceInUSD",
      "outputs": [
        {
          "internalType": "uint256",
          "name": "",
          "type": "uint256"
        }
      ],
      "stateMutability": "view",
      "type": "function"
    },
    {
      "inputs": [
        {
          "internalType": "address",
          "name": "_borrower",
          "type": "address"
        },
        {
          "internalType": "address",
          "name": "_token",
          "type": "address"
        },
        {
          "internalType": "uint256",
          "name": "borrowStartTimeStamp",
          "type": "uint256"
        }
      ],
      "name": "interestAccrued",
      "outputs": [
        {
          "internalType": "uint256",
          "name": "",
          "type": "uint256"
        }
      ],
      "stateMutability": "view",
      "type": "function"
    },
    {
      "inputs": [
        {
          "internalType": "address",
          "name": "_lender",
          "type": "address"
        },
        {
          "internalType": "address",
          "name": "_token",
          "type": "address"
        },
        {
          "internalType": "uint256",
          "name": "lendStartTimeStamp",
          "type": "uint256"
        }
      ],
      "name": "interestEarned",
      "outputs": [
        {
          "internalType": "uint256",
          "name": "",
          "type": "uint256"
        }
      ],
      "stateMutability": "view",
      "type": "function"
    },
    {
      "inputs": [
        {
          "internalType": "address",
          "name": "_token",
          "type": "address"
        }
      ],
      "name": "isETH",
      "outputs": [
        {
          "internalType": "bool",
          "name": "",
          "type": "bool"
        }
      ],
      "stateMutability": "view",
      "type": "function"
    },
    {
      "inputs": [
        {
          "internalType": "address",
          "name": "_borrower",
          "type": "address"
        },
        {
          "internalType": "address",
          "name": "_token",
          "type": "address"
        }
      ],
      "name": "isTokenBorrowed",
      "outputs": [
        {
          "internalType": "bool",
          "name": "",
          "type": "bool"
        }
      ],
      "stateMutability": "view",
      "type": "function"
    },
    {
      "inputs": [
        {
          "internalType": "address",
          "name": "_token",
          "type": "address"
        }
      ],
      "name": "isTokenInReserve",
      "outputs": [
        {
          "internalType": "bool",
          "name": "",
          "type": "bool"
        }
      ],
      "stateMutability": "view",
      "type": "function"
    },
    {
      "inputs": [
        {
          "internalType": "address",
          "name": "_token",
          "type": "address"
        },
        {
          "internalType": "uint256",
          "name": "_amount",
          "type": "uint256"
        }
      ],
      "name": "lend",
      "outputs": [],
      "stateMutability": "payable",
      "type": "function"
    },
    {
      "inputs": [
        {
          "internalType": "address",
          "name": "",
          "type": "address"
        },
        {
          "internalType": "uint256",
          "name": "",
          "type": "uint256"
        }
      ],
      "name": "lenderAssets",
      "outputs": [
        {
          "internalType": "address",
          "name": "user",
          "type": "address"
        },
        {
          "internalType": "address",
          "name": "token",
          "type": "address"
        },
        {
          "internalType": "uint256",
          "name": "lentQty",
          "type": "uint256"
        },
        {
          "internalType": "uint256",
          "name": "borrowQty",
          "type": "uint256"
        },
        {
          "internalType": "uint256",
          "name": "lentApy",
          "type": "uint256"
        },
        {
          "internalType": "uint256",
          "name": "borrowApy",
          "type": "uint256"
        },
        {
          "internalType": "uint256",
          "name": "lendStartTimeStamp",
          "type": "uint256"
        },
        {
          "internalType": "uint256",
          "name": "borrowStartTimeStamp",
          "type": "uint256"
        }
      ],
      "stateMutability": "view",
      "type": "function"
    },
    {
      "inputs": [
        {
          "internalType": "address",
          "name": "_token",
          "type": "address"
        },
        {
          "internalType": "uint256",
          "name": "_amount",
          "type": "uint256"
        }
      ],
      "name": "repay",
      "outputs": [],
      "stateMutability": "nonpayable",
      "type": "function"
    },
    {
      "inputs": [
        {
          "internalType": "uint256",
          "name": "",
          "type": "uint256"
        }
      ],
      "name": "reserveAssets",
      "outputs": [
        {
          "internalType": "address",
          "name": "",
          "type": "address"
        }
      ],
      "stateMutability": "view",
      "type": "function"
    },
    {
      "inputs": [
        {
          "internalType": "address",
          "name": "",
          "type": "address"
        }
      ],
      "name": "reserves",
      "outputs": [
        {
          "internalType": "uint256",
          "name": "",
          "type": "uint256"
        }
      ],
      "stateMutability": "view",
      "type": "function"
    },
    {
      "inputs": [
        {
          "internalType": "address",
          "name": "_token",
          "type": "address"
        },
        {
          "internalType": "uint256",
          "name": "lendStartTimeStamp",
          "type": "uint256"
        },
        {
          "internalType": "uint256",
          "name": "totalTokenSupply",
          "type": "uint256"
        }
      ],
      "name": "rewardPerToken",
      "outputs": [
        {
          "internalType": "uint256",
          "name": "",
          "type": "uint256"
        }
      ],
      "stateMutability": "view",
      "type": "function"
    },
    {
      "inputs": [
        {
          "internalType": "address",
          "name": "_token",
          "type": "address"
        },
        {
          "internalType": "uint256",
          "name": "_amount",
          "type": "uint256"
        }
      ],
      "name": "withdraw",
      "outputs": [
        {
          "internalType": "bool",
          "name": "",
          "type": "bool"
        }
      ],
      "stateMutability": "payable",
      "type": "function"
    },
    {
      "stateMutability": "payable",
      "type": "receive"
    }
  ],
  "bytecode": "0x6080604052600c6004553480156200001657600080fd5b5060405162005d5238038062005d5283398181016040528101906200003c919062000164565b600160008190555083600160006101000a81548173ffffffffffffffffffffffffffffffffffffffff021916908373ffffffffffffffffffffffffffffffffffffffff16021790555082600260006101000a81548173ffffffffffffffffffffffffffffffffffffffff021916908373ffffffffffffffffffffffffffffffffffffffff160217905550816005819055508060068190555033600360006101000a81548173ffffffffffffffffffffffffffffffffffffffff021916908373ffffffffffffffffffffffffffffffffffffffff160217905550505050506200028f565b600081519050620001308162000241565b92915050565b60008151905062000147816200025b565b92915050565b6000815190506200015e8162000275565b92915050565b600080600080608085870312156200018157620001806200023c565b5b600062000191878288016200011f565b9450506020620001a48782880162000136565b9350506040620001b7878288016200014d565b9250506060620001ca878288016200014d565b91505092959194509250565b6000620001e38262000212565b9050919050565b6000620001f782620001d6565b9050919050565b60006200020b82620001d6565b9050919050565b600073ffffffffffffffffffffffffffffffffffffffff82169050919050565b6000819050919050565b600080fd5b6200024c81620001ea565b81146200025857600080fd5b50565b6200026681620001fe565b81146200027257600080fd5b50565b620002808162000232565b81146200028c57600080fd5b50565b615ab3806200029f6000396000f3fe6080604052600436106102085760003560e01c80638c89a0ad11610118578063d66bd524116100a0578063f3fef3a31161006f578063f3fef3a314610883578063f70a2508146108b3578063f8b2cb4f146108f0578063fa37f3841461092d578063fa80b623146109585761020f565b8063d66bd52414610788578063ddd44c96146107c5578063e59b785d14610802578063e94b8590146108465761020f565b8063b36d4ec7116100e7578063b36d4ec714610669578063c0593fc9146106a6578063c489744b146106d1578063c9b2e5221461070e578063d0278dcd1461074b5761020f565b80638c89a0ad146105ba57806390a8ae9b146105e55780639390f68014610610578063a2fb342d1461064d5761020f565b8063243105981161019b5780634301e8df1161016a5780634301e8df146104ad5780634b8a3529146104ea5780635b72a33a14610527578063602839db1461055257806388c294741461057d5761020f565b806324310598146103cb57806325d07a95146104085780632e0f26251461044557806337973e5f146104705761020f565b80631500c2ff116101d75780631500c2ff146102f65780631fe67ce61461032157806320d6cc5d1461035e57806322867d78146103a25761020f565b80630792d9e91461021457806309f72da3146102515780630f11c9a61461028e5780630f8a60f7146102cb5761020f565b3661020f57005b600080fd5b34801561022057600080fd5b5061023b600480360381019061023691906146c3565b610995565b6040516102489190615015565b60405180910390f35b34801561025d57600080fd5b5061027860048036038101906102739190614696565b610ac9565b60405161028591906151f2565b60405180910390f35b34801561029a57600080fd5b506102b560048036038101906102b09190614696565b610c16565b6040516102c29190614fd1565b60405180910390f35b3480156102d757600080fd5b506102e0610e82565b6040516102ed919061520d565b60405180910390f35b34801561030257600080fd5b5061030b610e89565b60405161031891906151f2565b60405180910390f35b34801561032d57600080fd5b5061034860048036038101906103439190614696565b610e8e565b6040516103559190614ff3565b60405180910390f35b34801561036a57600080fd5b5061038560048036038101906103809190614756565b611015565b604051610399989796959493929190614e96565b60405180910390f35b3480156103ae57600080fd5b506103c960048036038101906103c49190614756565b6110ba565b005b3480156103d757600080fd5b506103f260048036038101906103ed9190614696565b611a94565b6040516103ff9190615015565b60405180910390f35b34801561041457600080fd5b5061042f600480360381019061042a9190614756565b611b46565b60405161043c91906151f2565b60405180910390f35b34801561045157600080fd5b5061045a611b7c565b60405161046791906151f2565b60405180910390f35b34801561047c57600080fd5b506104976004803603810190610492919061485f565b611b81565b6040516104a49190614e44565b60405180910390f35b3480156104b957600080fd5b506104d460048036038101906104cf9190614696565b611bc0565b6040516104e191906151f2565b60405180910390f35b3480156104f657600080fd5b50610511600480360381019061050c9190614756565b611e9d565b60405161051e9190615015565b60405180910390f35b34801561053357600080fd5b5061053c6126fc565b60405161054991906151f2565b60405180910390f35b34801561055e57600080fd5b50610567612702565b60405161057491906151f2565b60405180910390f35b34801561058957600080fd5b506105a4600480360381019061059f91906146c3565b612708565b6040516105b191906151f2565b60405180910390f35b3480156105c657600080fd5b506105cf61289d565b6040516105dc91906151f2565b60405180910390f35b3480156105f157600080fd5b506105fa6128a5565b60405161060791906151f2565b60405180910390f35b34801561061c57600080fd5b5061063760048036038101906106329190614756565b6128aa565b60405161064491906151f2565b60405180910390f35b61066760048036038101906106629190614756565b6128c8565b005b34801561067557600080fd5b50610690600480360381019061068b9190614696565b6132ce565b60405161069d9190614ff3565b60405180910390f35b3480156106b257600080fd5b506106bb613455565b6040516106c8919061520d565b60405180910390f35b3480156106dd57600080fd5b506106f860048036038101906106f391906146c3565b61345c565b60405161070591906151f2565b60405180910390f35b34801561071a57600080fd5b5061073560048036038101906107309190614696565b6134ef565b6040516107429190615030565b60405180910390f35b34801561075757600080fd5b50610772600480360381019061076d9190614703565b6135a8565b60405161077f91906151f2565b60405180910390f35b34801561079457600080fd5b506107af60048036038101906107aa9190614696565b613624565b6040516107bc91906151f2565b60405180910390f35b3480156107d157600080fd5b506107ec60048036038101906107e791906146c3565b61363c565b6040516107f991906151f2565b60405180910390f35b34801561080e57600080fd5b5061082960048036038101906108249190614756565b6137d1565b60405161083d989796959493929190614e96565b60405180910390f35b34801561085257600080fd5b5061086d60048036038101906108689190614703565b613876565b60405161087a91906151f2565b60405180910390f35b61089d60048036038101906108989190614756565b6138f2565b6040516108aa9190615015565b60405180910390f35b3480156108bf57600080fd5b506108da60048036038101906108d59190614696565b614025565b6040516108e79190615015565b60405180910390f35b3480156108fc57600080fd5b5061091760048036038101906109129190614696565b614094565b60405161092491906151f2565b60405180910390f35b34801561093957600080fd5b506109426140b5565b60405161094f919061520d565b60405180910390f35b34801561096457600080fd5b5061097f600480360381019061097a9190614796565b6140bc565b60405161098c91906151f2565b60405180910390f35b600080600a60008573ffffffffffffffffffffffffffffffffffffffff1673ffffffffffffffffffffffffffffffffffffffff16815260200190815260200160002080549050905060005b81811015610abc578373ffffffffffffffffffffffffffffffffffffffff16600a60008773ffffffffffffffffffffffffffffffffffffffff1673ffffffffffffffffffffffffffffffffffffffff1681526020019081526020016000208281548110610a5057610a4f6155c9565b5b906000526020600020906008020160010160009054906101000a900473ffffffffffffffffffffffffffffffffffffffff1673ffffffffffffffffffffffffffffffffffffffff161415610aa957600192505050610ac3565b8080610ab4906154f3565b9150506109e0565b5060009150505b92915050565b6000610ad482614025565b15610ae3576105bb9050610c11565b604051602001610af290614df0565b60405160208183030381529060405280519060200120610b11836134ef565b604051602001610b219190614dc4565b604051602081830303815290604052805190602001201415610b465760019050610c11565b604051602001610b5590614e2f565b60405160208183030381529060405280519060200120610b74836134ef565b604051602001610b849190614dc4565b604051602081830303815290604052805190602001201415610ba95760019050610c11565b604051602001610bb890614ddb565b60405160208183030381529060405280519060200120610bd7836134ef565b604051602001610be79190614dc4565b604051602081830303815290604052805190602001201415610c0c5760069050610c11565b600190505b919050565b6060600060646050610c2785611bc0565b610c3191906153a9565b610c3b9190615378565b9050600060088054905090506000600182610c569190615403565b67ffffffffffffffff811115610c6f57610c6e6155f8565b5b604051908082528060200260200182016040528015610ca857816020015b610c9561459b565b815260200190600190039081610c8d5790505b5090506000805b83811015610e7557600060088281548110610ccd57610ccc6155c9565b5b9060005260206000200160009054906101000a900473ffffffffffffffffffffffffffffffffffffffff169050600260009054906101000a900473ffffffffffffffffffffffffffffffffffffffff1673ffffffffffffffffffffffffffffffffffffffff166337442b6c826040518263ffffffff1660e01b8152600401610d559190614e44565b60206040518083038186803b158015610d6d57600080fd5b505afa158015610d81573d6000803e3d6000fd5b505050506040513d601f19601f82011682018060405250810190610da591906147e9565b15610e61576000610dfe610db983896128aa565b600760008573ffffffffffffffffffffffffffffffffffffffff1673ffffffffffffffffffffffffffffffffffffffff1681526020019081526020016000205461414f565b905060405180606001604052808373ffffffffffffffffffffffffffffffffffffffff168152602001828152602001600654815250858581518110610e4657610e456155c9565b5b60200260200101819052508380610e5c906154f3565b945050505b508080610e6d906154f3565b915050610caf565b5081945050505050919050565b6276a70081565b605081565b6060600a60008373ffffffffffffffffffffffffffffffffffffffff1673ffffffffffffffffffffffffffffffffffffffff168152602001908152602001600020805480602002602001604051908101604052809291908181526020016000905b8282101561100a5783829060005260206000209060080201604051806101000160405290816000820160009054906101000a900473ffffffffffffffffffffffffffffffffffffffff1673ffffffffffffffffffffffffffffffffffffffff1673ffffffffffffffffffffffffffffffffffffffff1681526020016001820160009054906101000a900473ffffffffffffffffffffffffffffffffffffffff1673ffffffffffffffffffffffffffffffffffffffff1673ffffffffffffffffffffffffffffffffffffffff168152602001600282015481526020016003820154815260200160048201548152602001600582015481526020016006820154815260200160078201548152505081526020019060010190610eef565b505050509050919050565b600a602052816000526040600020818154811061103157600080fd5b9060005260206000209060080201600091509150508060000160009054906101000a900473ffffffffffffffffffffffffffffffffffffffff16908060010160009054906101000a900473ffffffffffffffffffffffffffffffffffffffff16908060020154908060030154908060040154908060050154908060060154908060070154905088565b6110c2614169565b8060008111611106576040517f08c379a00000000000000000000000000000000000000000000000000000000081526004016110fd90615192565b60405180910390fd5b33836000600a60008473ffffffffffffffffffffffffffffffffffffffff1673ffffffffffffffffffffffffffffffffffffffff16815260200190815260200160002080549050905060005b818110156112b9576111c78484600a60008873ffffffffffffffffffffffffffffffffffffffff1673ffffffffffffffffffffffffffffffffffffffff16815260200190815260200160002084815481106111b0576111af6155c9565b5b906000526020600020906008020160070154613876565b600a60008673ffffffffffffffffffffffffffffffffffffffff1673ffffffffffffffffffffffffffffffffffffffff1681526020019081526020016000208281548110611218576112176155c9565b5b906000526020600020906008020160030160008282546112389190615322565b9250508190555042600a60008673ffffffffffffffffffffffffffffffffffffffff1673ffffffffffffffffffffffffffffffffffffffff1681526020019081526020016000208281548110611291576112906155c9565b5b90600052602060002090600802016007018190555080806112b1906154f3565b915050611152565b5060003390506112c98188610995565b611308576040517f08c379a00000000000000000000000000000000000000000000000000000000081526004016112ff906150f2565b60405180910390fd5b611312818861363c565b861115611354576040517f08c379a000000000000000000000000000000000000000000000000000000000815260040161134b906151d2565b60405180910390fd5b60008773ffffffffffffffffffffffffffffffffffffffff1663a9059cbb83896040518363ffffffff1660e01b8152600401611391929190614fa8565b602060405180830381600087803b1580156113ab57600080fd5b505af11580156113bf573d6000803e3d6000fd5b505050506040513d601f19601f820116820180604052508101906113e391906147e9565b905080611425576040517f08c379a000000000000000000000000000000000000000000000000000000000815260040161141c906150d2565b60405180910390fd5b86600760008a73ffffffffffffffffffffffffffffffffffffffff1673ffffffffffffffffffffffffffffffffffffffff16815260200190815260200160002060008282546114749190615322565b925050819055506000600a60008473ffffffffffffffffffffffffffffffffffffffff1673ffffffffffffffffffffffffffffffffffffffff16815260200190815260200160002080549050905060005b81811015611a80578973ffffffffffffffffffffffffffffffffffffffff16600a60008673ffffffffffffffffffffffffffffffffffffffff1673ffffffffffffffffffffffffffffffffffffffff1681526020019081526020016000208281548110611535576115346155c9565b5b906000526020600020906008020160010160009054906101000a900473ffffffffffffffffffffffffffffffffffffffff1673ffffffffffffffffffffffffffffffffffffffff1614156116645788600a60008673ffffffffffffffffffffffffffffffffffffffff1673ffffffffffffffffffffffffffffffffffffffff16815260200190815260200160002082815481106115d5576115d46155c9565b5b906000526020600020906008020160030160008282546115f59190615403565b9250508190555042600a60008673ffffffffffffffffffffffffffffffffffffffff1673ffffffffffffffffffffffffffffffffffffffff168152602001908152602001600020828154811061164e5761164d6155c9565b5b9060005260206000209060080201600701819055505b6000600a60008673ffffffffffffffffffffffffffffffffffffffff1673ffffffffffffffffffffffffffffffffffffffff16815260200190815260200160002082815481106116b7576116b66155c9565b5b9060005260206000209060080201600301541415611a6d57600a60008573ffffffffffffffffffffffffffffffffffffffff1673ffffffffffffffffffffffffffffffffffffffff16815260200190815260200160002081815481106117205761171f6155c9565b5b9060005260206000209060080201600080820160006101000a81549073ffffffffffffffffffffffffffffffffffffffff02191690556001820160006101000a81549073ffffffffffffffffffffffffffffffffffffffff02191690556002820160009055600382016000905560048201600090556005820160009055600682016000905560078201600090555050600a60008573ffffffffffffffffffffffffffffffffffffffff1673ffffffffffffffffffffffffffffffffffffffff1681526020019081526020016000206001836117fb9190615403565b8154811061180c5761180b6155c9565b5b9060005260206000209060080201600a60008673ffffffffffffffffffffffffffffffffffffffff1673ffffffffffffffffffffffffffffffffffffffff168152602001908152602001600020828154811061186b5761186a6155c9565b5b90600052602060002090600802016000820160009054906101000a900473ffffffffffffffffffffffffffffffffffffffff168160000160006101000a81548173ffffffffffffffffffffffffffffffffffffffff021916908373ffffffffffffffffffffffffffffffffffffffff1602179055506001820160009054906101000a900473ffffffffffffffffffffffffffffffffffffffff168160010160006101000a81548173ffffffffffffffffffffffffffffffffffffffff021916908373ffffffffffffffffffffffffffffffffffffffff160217905550600282015481600201556003820154816003015560048201548160040155600582015481600501556006820154816006015560078201548160070155905050600a60008573ffffffffffffffffffffffffffffffffffffffff1673ffffffffffffffffffffffffffffffffffffffff1681526020019081526020016000208054806119d5576119d461559a565b5b6001900381819060005260206000209060080201600080820160006101000a81549073ffffffffffffffffffffffffffffffffffffffff02191690556001820160006101000a81549073ffffffffffffffffffffffffffffffffffffffff0219169055600282016000905560038201600090556004820160009055600582016000905560068201600090556007820160009055505090555b8080611a78906154f3565b9150506114c5565b5050505050505050611a906141b9565b5050565b600080600880549050905060005b81811015611b3a578373ffffffffffffffffffffffffffffffffffffffff1660088281548110611ad557611ad46155c9565b5b9060005260206000200160009054906101000a900473ffffffffffffffffffffffffffffffffffffffff1673ffffffffffffffffffffffffffffffffffffffff161415611b2757600192505050611b41565b8080611b32906154f3565b915050611aa2565b5060009150505b919050565b600080670de0b6b3a764000083611b5d9190615378565b611b6685610ac9565b611b7091906153a9565b90508091505092915050565b601281565b60088181548110611b9157600080fd5b906000526020600020016000915054906101000a900473ffffffffffffffffffffffffffffffffffffffff1681565b600080600080600960008673ffffffffffffffffffffffffffffffffffffffff1673ffffffffffffffffffffffffffffffffffffffff16815260200190815260200160002080549050905060005b81811015611d2457611d04600960008873ffffffffffffffffffffffffffffffffffffffff1673ffffffffffffffffffffffffffffffffffffffff1681526020019081526020016000208281548110611c6a57611c696155c9565b5b906000526020600020906008020160010160009054906101000a900473ffffffffffffffffffffffffffffffffffffffff16600960008973ffffffffffffffffffffffffffffffffffffffff1673ffffffffffffffffffffffffffffffffffffffff1681526020019081526020016000208381548110611ced57611cec6155c9565b5b906000526020600020906008020160020154611b46565b84611d0f9190615322565b93508080611d1c906154f3565b915050611c0e565b506000600a60008773ffffffffffffffffffffffffffffffffffffffff1673ffffffffffffffffffffffffffffffffffffffff16815260200190815260200160002080549050905060005b81811015611e8557611e65600a60008973ffffffffffffffffffffffffffffffffffffffff1673ffffffffffffffffffffffffffffffffffffffff1681526020019081526020016000208281548110611dcb57611dca6155c9565b5b906000526020600020906008020160010160009054906101000a900473ffffffffffffffffffffffffffffffffffffffff16600a60008a73ffffffffffffffffffffffffffffffffffffffff1673ffffffffffffffffffffffffffffffffffffffff1681526020019081526020016000208381548110611e4e57611e4d6155c9565b5b906000526020600020906008020160030154611b46565b84611e709190615322565b93508080611e7d906154f3565b915050611d6f565b508284611e929190615403565b945050505050919050565b6000611ea7614169565b33836000600a60008473ffffffffffffffffffffffffffffffffffffffff1673ffffffffffffffffffffffffffffffffffffffff16815260200190815260200160002080549050905060005b8181101561205a57611f688484600a60008873ffffffffffffffffffffffffffffffffffffffff1673ffffffffffffffffffffffffffffffffffffffff1681526020019081526020016000208481548110611f5157611f506155c9565b5b906000526020600020906008020160070154613876565b600a60008673ffffffffffffffffffffffffffffffffffffffff1673ffffffffffffffffffffffffffffffffffffffff1681526020019081526020016000208281548110611fb957611fb86155c9565b5b90600052602060002090600802016003016000828254611fd99190615322565b9250508190555042600a60008673ffffffffffffffffffffffffffffffffffffffff1673ffffffffffffffffffffffffffffffffffffffff1681526020019081526020016000208281548110612032576120316155c9565b5b9060005260206000209060080201600701819055508080612052906154f3565b915050611ef3565b50846000811161209f576040517f08c379a000000000000000000000000000000000000000000000000000000000815260040161209690615192565b60405180910390fd5b600033905060006120b08989611b46565b90506000606460506120c185611bc0565b6120cb91906153a9565b6120d59190615378565b90508082111561211a576040517f08c379a000000000000000000000000000000000000000000000000000000000815260040161211190615172565b60405180910390fd5b600760008b73ffffffffffffffffffffffffffffffffffffffff1673ffffffffffffffffffffffffffffffffffffffff1681526020019081526020016000205489111561219c576040517f08c379a000000000000000000000000000000000000000000000000000000000815260040161219390615072565b60405180910390fd5b6121a58a6141c3565b6123535760006040518061010001604052808573ffffffffffffffffffffffffffffffffffffffff1681526020018c73ffffffffffffffffffffffffffffffffffffffff168152602001600081526020018b815260200160008152602001600654815260200160008152602001428152509050600a60008573ffffffffffffffffffffffffffffffffffffffff1673ffffffffffffffffffffffffffffffffffffffff16815260200190815260200160002081908060018154018082558091505060019003906000526020600020906008020160009091909190915060008201518160000160006101000a81548173ffffffffffffffffffffffffffffffffffffffff021916908373ffffffffffffffffffffffffffffffffffffffff16021790555060208201518160010160006101000a81548173ffffffffffffffffffffffffffffffffffffffff021916908373ffffffffffffffffffffffffffffffffffffffff16021790555060408201518160020155606082015181600301556080820151816004015560a0820151816005015560c0820151816006015560e082015181600701555050506125bb565b6000600a60008573ffffffffffffffffffffffffffffffffffffffff1673ffffffffffffffffffffffffffffffffffffffff16815260200190815260200160002080549050905060005b818110156125b8578b73ffffffffffffffffffffffffffffffffffffffff16600a60008773ffffffffffffffffffffffffffffffffffffffff1673ffffffffffffffffffffffffffffffffffffffff168152602001908152602001600020828154811061240d5761240c6155c9565b5b906000526020600020906008020160010160009054906101000a900473ffffffffffffffffffffffffffffffffffffffff1673ffffffffffffffffffffffffffffffffffffffff1614156125a5578a600a60008773ffffffffffffffffffffffffffffffffffffffff1673ffffffffffffffffffffffffffffffffffffffff16815260200190815260200160002082815481106124ad576124ac6155c9565b5b906000526020600020906008020160030160008282546124cd9190615322565b92505081905550600654600a60008773ffffffffffffffffffffffffffffffffffffffff1673ffffffffffffffffffffffffffffffffffffffff1681526020019081526020016000208281548110612528576125276155c9565b5b90600052602060002090600802016005018190555042600a60008773ffffffffffffffffffffffffffffffffffffffff1673ffffffffffffffffffffffffffffffffffffffff168152602001908152602001600020828154811061258f5761258e6155c9565b5b9060005260206000209060080201600701819055505b80806125b0906154f3565b91505061239d565b50505b88600760008c73ffffffffffffffffffffffffffffffffffffffff1673ffffffffffffffffffffffffffffffffffffffff168152602001908152602001600020600082825461260a9190615403565b9250508190555060008a73ffffffffffffffffffffffffffffffffffffffff1663a9059cbb858c6040518363ffffffff1660e01b815260040161264e929190614fa8565b602060405180830381600087803b15801561266857600080fd5b505af115801561267c573d6000803e3d6000fd5b505050506040513d601f19601f820116820180604052508101906126a091906147e9565b9050806126e2576040517f08c379a00000000000000000000000000000000000000000000000000000000081526004016126d990615112565b60405180910390fd5b6001985050505050505050506126f66141b9565b92915050565b60055481565b60065481565b600080600960008573ffffffffffffffffffffffffffffffffffffffff1673ffffffffffffffffffffffffffffffffffffffff16815260200190815260200160002080549050905060005b81811015612890578373ffffffffffffffffffffffffffffffffffffffff16600960008773ffffffffffffffffffffffffffffffffffffffff1673ffffffffffffffffffffffffffffffffffffffff16815260200190815260200160002082815481106127c3576127c26155c9565b5b906000526020600020906008020160010160009054906101000a900473ffffffffffffffffffffffffffffffffffffffff1673ffffffffffffffffffffffffffffffffffffffff16141561287d57600960008673ffffffffffffffffffffffffffffffffffffffff1673ffffffffffffffffffffffffffffffffffffffff1681526020019081526020016000208181548110612862576128616155c9565b5b90600052602060002090600802016002015492505050612897565b8080612888906154f3565b915050612753565b5060009150505b92915050565b600047905090565b607881565b60006128b583610ac9565b826128c09190615378565b905092915050565b6128d0614169565b8060008111612914576040517f08c379a000000000000000000000000000000000000000000000000000000000815260040161290b90615192565b60405180910390fd5b33836000600960008473ffffffffffffffffffffffffffffffffffffffff1673ffffffffffffffffffffffffffffffffffffffff16815260200190815260200160002080549050905060005b81811015612ac7576129d58484600960008873ffffffffffffffffffffffffffffffffffffffff1673ffffffffffffffffffffffffffffffffffffffff16815260200190815260200160002084815481106129be576129bd6155c9565b5b9060005260206000209060080201600601546135a8565b600960008673ffffffffffffffffffffffffffffffffffffffff1673ffffffffffffffffffffffffffffffffffffffff1681526020019081526020016000208281548110612a2657612a256155c9565b5b90600052602060002090600802016002016000828254612a469190615322565b9250508190555042600960008673ffffffffffffffffffffffffffffffffffffffff1673ffffffffffffffffffffffffffffffffffffffff1681526020019081526020016000208281548110612a9f57612a9e6155c9565b5b9060005260206000209060080201600601819055508080612abf906154f3565b915050612960565b5060003390506000612ad888614025565b612ae3576000612ae6565b60015b90506000612af389614025565b612afe576001612b01565b60005b90506000612b0e8a6134ef565b9050600260009054906101000a900473ffffffffffffffffffffffffffffffffffffffff1673ffffffffffffffffffffffffffffffffffffffff166325101dbc8b6040518263ffffffff1660e01b8152600401612b6b9190614e44565b60206040518083038186803b158015612b8357600080fd5b505afa158015612b97573d6000803e3d6000fd5b505050506040513d601f19601f82011682018060405250810190612bbb91906147e9565b612c8357600260009054906101000a900473ffffffffffffffffffffffffffffffffffffffff1673ffffffffffffffffffffffffffffffffffffffff16634c2fad068b848660006001876012605060786040518a63ffffffff1660e01b8152600401612c2f99989796959493929190614f14565b602060405180830381600087803b158015612c4957600080fd5b505af1158015612c5d573d6000803e3d6000fd5b505050506040513d601f19601f82011682018060405250810190612c8191906147e9565b505b612c8c8a614025565b15612d435760003073ffffffffffffffffffffffffffffffffffffffff1634604051612cb790614e1a565b60006040518083038185875af1925050503d8060008114612cf4576040519150601f19603f3d011682016040523d82523d6000602084013e612cf9565b606091505b5050905080612d3d576040517f08c379a0000000000000000000000000000000000000000000000000000000008152600401612d3490615092565b60405180910390fd5b50612dd4565b8973ffffffffffffffffffffffffffffffffffffffff166323b872dd85308c6040518463ffffffff1660e01b8152600401612d8093929190614e5f565b602060405180830381600087803b158015612d9a57600080fd5b505af1158015612dae573d6000803e3d6000fd5b505050506040513d601f19601f82011682018060405250810190612dd291906147e9565b505b88600760008c73ffffffffffffffffffffffffffffffffffffffff1673ffffffffffffffffffffffffffffffffffffffff1681526020019081526020016000206000828254612e239190615322565b92505081905550612e338a611a94565b612e9b5760088a9080600181540180825580915050600190039060005260206000200160009091909190916101000a81548173ffffffffffffffffffffffffffffffffffffffff021916908373ffffffffffffffffffffffffffffffffffffffff1602179055505b6000600960008673ffffffffffffffffffffffffffffffffffffffff1673ffffffffffffffffffffffffffffffffffffffff168152602001908152602001600020805490509050612eeb8b6143af565b6130995760006040518061010001604052808773ffffffffffffffffffffffffffffffffffffffff1681526020018d73ffffffffffffffffffffffffffffffffffffffff1681526020018c81526020016000815260200160055481526020016000815260200142815260200160008152509050600960008773ffffffffffffffffffffffffffffffffffffffff1673ffffffffffffffffffffffffffffffffffffffff16815260200190815260200160002081908060018154018082558091505060019003906000526020600020906008020160009091909190915060008201518160000160006101000a81548173ffffffffffffffffffffffffffffffffffffffff021916908373ffffffffffffffffffffffffffffffffffffffff16021790555060208201518160010160006101000a81548173ffffffffffffffffffffffffffffffffffffffff021916908373ffffffffffffffffffffffffffffffffffffffff16021790555060408201518160020155606082015181600301556080820151816004015560a0820151816005015560c0820151816006015560e082015181600701555050506132b9565b60005b818110156132b7578b73ffffffffffffffffffffffffffffffffffffffff16600960008873ffffffffffffffffffffffffffffffffffffffff1673ffffffffffffffffffffffffffffffffffffffff168152602001908152602001600020828154811061310c5761310b6155c9565b5b906000526020600020906008020160010160009054906101000a900473ffffffffffffffffffffffffffffffffffffffff1673ffffffffffffffffffffffffffffffffffffffff1614156132a4578a600960008873ffffffffffffffffffffffffffffffffffffffff1673ffffffffffffffffffffffffffffffffffffffff16815260200190815260200160002082815481106131ac576131ab6155c9565b5b906000526020600020906008020160020160008282546131cc9190615322565b92505081905550600554600960008873ffffffffffffffffffffffffffffffffffffffff1673ffffffffffffffffffffffffffffffffffffffff1681526020019081526020016000208281548110613227576132266155c9565b5b90600052602060002090600802016004018190555042600960008873ffffffffffffffffffffffffffffffffffffffff1673ffffffffffffffffffffffffffffffffffffffff168152602001908152602001600020828154811061328e5761328d6155c9565b5b9060005260206000209060080201600601819055505b80806132af906154f3565b91505061309c565b505b5050505050505050506132ca6141b9565b5050565b6060600960008373ffffffffffffffffffffffffffffffffffffffff1673ffffffffffffffffffffffffffffffffffffffff168152602001908152602001600020805480602002602001604051908101604052809291908181526020016000905b8282101561344a5783829060005260206000209060080201604051806101000160405290816000820160009054906101000a900473ffffffffffffffffffffffffffffffffffffffff1673ffffffffffffffffffffffffffffffffffffffff1673ffffffffffffffffffffffffffffffffffffffff1681526020016001820160009054906101000a900473ffffffffffffffffffffffffffffffffffffffff1673ffffffffffffffffffffffffffffffffffffffff1673ffffffffffffffffffffffffffffffffffffffff16815260200160028201548152602001600382015481526020016004820154815260200160058201548152602001600682015481526020016007820154815250508152602001906001019061332f565b505050509050919050565b62278d0081565b60008173ffffffffffffffffffffffffffffffffffffffff166370a08231846040518263ffffffff1660e01b81526004016134979190614e44565b60206040518083038186803b1580156134af57600080fd5b505afa1580156134c3573d6000803e3d6000fd5b505050506040513d601f19601f820116820180604052508101906134e7919061488c565b905092915050565b6060600160009054906101000a900473ffffffffffffffffffffffffffffffffffffffff1673ffffffffffffffffffffffffffffffffffffffff1663ae22c57d836040518263ffffffff1660e01b815260040161354c9190614e44565b60006040518083038186803b15801561356457600080fd5b505afa158015613578573d6000803e3d6000fd5b505050506040513d6000823e3d601f19601f820116820180604052508101906135a19190614816565b9050919050565b6000670de0b6b3a76400006135fd8484600760008873ffffffffffffffffffffffffffffffffffffffff1673ffffffffffffffffffffffffffffffffffffffff168152602001908152602001600020546140bc565b6136078686612708565b61361191906153a9565b61361b9190615378565b90509392505050565b60076020528060005260406000206000915090505481565b600080600a60008573ffffffffffffffffffffffffffffffffffffffff1673ffffffffffffffffffffffffffffffffffffffff16815260200190815260200160002080549050905060005b818110156137c4578373ffffffffffffffffffffffffffffffffffffffff16600a60008773ffffffffffffffffffffffffffffffffffffffff1673ffffffffffffffffffffffffffffffffffffffff16815260200190815260200160002082815481106136f7576136f66155c9565b5b906000526020600020906008020160010160009054906101000a900473ffffffffffffffffffffffffffffffffffffffff1673ffffffffffffffffffffffffffffffffffffffff1614156137b157600a60008673ffffffffffffffffffffffffffffffffffffffff1673ffffffffffffffffffffffffffffffffffffffff1681526020019081526020016000208181548110613796576137956155c9565b5b906000526020600020906008020160030154925050506137cb565b80806137bc906154f3565b915050613687565b5060009150505b92915050565b600960205281600052604060002081815481106137ed57600080fd5b9060005260206000209060080201600091509150508060000160009054906101000a900473ffffffffffffffffffffffffffffffffffffffff16908060010160009054906101000a900473ffffffffffffffffffffffffffffffffffffffff16908060020154908060030154908060040154908060050154908060060154908060070154905088565b6000670de0b6b3a76400006138cb8484600760008873ffffffffffffffffffffffffffffffffffffffff1673ffffffffffffffffffffffffffffffffffffffff168152602001908152602001600020546140bc565b6138d5868661363c565b6138df91906153a9565b6138e99190615378565b90509392505050565b60006138fc614169565b33836000600960008473ffffffffffffffffffffffffffffffffffffffff1673ffffffffffffffffffffffffffffffffffffffff16815260200190815260200160002080549050905060005b81811015613aaf576139bd8484600960008873ffffffffffffffffffffffffffffffffffffffff1673ffffffffffffffffffffffffffffffffffffffff16815260200190815260200160002084815481106139a6576139a56155c9565b5b9060005260206000209060080201600601546135a8565b600960008673ffffffffffffffffffffffffffffffffffffffff1673ffffffffffffffffffffffffffffffffffffffff1681526020019081526020016000208281548110613a0e57613a0d6155c9565b5b90600052602060002090600802016002016000828254613a2e9190615322565b9250508190555042600960008673ffffffffffffffffffffffffffffffffffffffff1673ffffffffffffffffffffffffffffffffffffffff1681526020019081526020016000208281548110613a8757613a866155c9565b5b9060005260206000209060080201600601819055508080613aa7906154f3565b915050613948565b508460008111613af4576040517f08c379a0000000000000000000000000000000000000000000000000000000008152600401613aeb90615192565b60405180910390fd5b6000339050613b02886143af565b613b41576040517f08c379a0000000000000000000000000000000000000000000000000000000008152600401613b3890615152565b60405180910390fd5b6000670de0b6b3a7640000613b5e8a613b5985611bc0565b6128aa565b613b6891906153a9565b905087811015613bad576040517f08c379a0000000000000000000000000000000000000000000000000000000008152600401613ba4906150b2565b60405180910390fd5b87600760008b73ffffffffffffffffffffffffffffffffffffffff1673ffffffffffffffffffffffffffffffffffffffff168152602001908152602001600020541015613c2f576040517f08c379a0000000000000000000000000000000000000000000000000000000008152600401613c2690615052565b60405180910390fd5b87600760008b73ffffffffffffffffffffffffffffffffffffffff1673ffffffffffffffffffffffffffffffffffffffff1681526020019081526020016000206000828254613c7e9190615403565b925050819055506000600960008473ffffffffffffffffffffffffffffffffffffffff1673ffffffffffffffffffffffffffffffffffffffff16815260200190815260200160002080549050905060005b81811015613e81578a73ffffffffffffffffffffffffffffffffffffffff16600960008673ffffffffffffffffffffffffffffffffffffffff1673ffffffffffffffffffffffffffffffffffffffff1681526020019081526020016000208281548110613d3f57613d3e6155c9565b5b906000526020600020906008020160010160009054906101000a900473ffffffffffffffffffffffffffffffffffffffff1673ffffffffffffffffffffffffffffffffffffffff161415613e6e5789600960008673ffffffffffffffffffffffffffffffffffffffff1673ffffffffffffffffffffffffffffffffffffffff1681526020019081526020016000208281548110613ddf57613dde6155c9565b5b90600052602060002090600802016002016000828254613dff9190615403565b9250508190555042600960008673ffffffffffffffffffffffffffffffffffffffff1673ffffffffffffffffffffffffffffffffffffffff1681526020019081526020016000208281548110613e5857613e576155c9565b5b9060005260206000209060080201600601819055505b8080613e79906154f3565b915050613ccf565b50613e8b8a614025565b15613f7d5760008373ffffffffffffffffffffffffffffffffffffffff168a604051613eb690614e1a565b60006040518083038185875af1925050503d8060008114613ef3576040519150601f19603f3d011682016040523d82523d6000602084013e613ef8565b606091505b5050905080613f3c576040517f08c379a0000000000000000000000000000000000000000000000000000000008152600401613f3390615132565b60405180910390fd5b7f428ab6cd67836d0fe93626e98108a1a2593b0bc06a1a87b59e437a17cbaf430c848c8c604051613f6f93929190614e5f565b60405180910390a15061400c565b8973ffffffffffffffffffffffffffffffffffffffff1663a9059cbb848b6040518363ffffffff1660e01b8152600401613fb8929190614fa8565b602060405180830381600087803b158015613fd257600080fd5b505af1158015613fe6573d6000803e3d6000fd5b505050506040513d601f19601f8201168201806040525081019061400a91906147e9565b505b600197505050505050505061401f6141b9565b92915050565b600060405160200161403690614e05565b60405160208183030381529060405280519060200120614055836134ef565b6040516020016140659190614dc4565b60405160208183030381529060405280519060200120141561408a576001905061408f565b600090505b919050565b60008173ffffffffffffffffffffffffffffffffffffffff16319050919050565b624f1a0081565b600080600760008673ffffffffffffffffffffffffffffffffffffffff1673ffffffffffffffffffffffffffffffffffffffff16815260200190815260200160002054141561410e5760009050614148565b81670de0b6b3a764000060055485426141279190615403565b61413191906153a9565b61413b91906153a9565b6141459190615378565b90505b9392505050565b60008183111561415f5781614161565b825b905092915050565b600260005414156141af576040517f08c379a00000000000000000000000000000000000000000000000000000000081526004016141a6906151b2565b60405180910390fd5b6002600081905550565b6001600081905550565b600080600a60003373ffffffffffffffffffffffffffffffffffffffff1673ffffffffffffffffffffffffffffffffffffffff16815260200190815260200160002080549050905060005b818110156143a3573373ffffffffffffffffffffffffffffffffffffffff16600a60003373ffffffffffffffffffffffffffffffffffffffff1673ffffffffffffffffffffffffffffffffffffffff168152602001908152602001600020828154811061427e5761427d6155c9565b5b906000526020600020906008020160000160009054906101000a900473ffffffffffffffffffffffffffffffffffffffff1673ffffffffffffffffffffffffffffffffffffffff1614801561438057508373ffffffffffffffffffffffffffffffffffffffff16600a60003373ffffffffffffffffffffffffffffffffffffffff1673ffffffffffffffffffffffffffffffffffffffff1681526020019081526020016000208281548110614336576143356155c9565b5b906000526020600020906008020160010160009054906101000a900473ffffffffffffffffffffffffffffffffffffffff1673ffffffffffffffffffffffffffffffffffffffff16145b15614390576001925050506143aa565b808061439b906154f3565b91505061420e565b5060009150505b919050565b600080600960003373ffffffffffffffffffffffffffffffffffffffff1673ffffffffffffffffffffffffffffffffffffffff16815260200190815260200160002080549050905060005b8181101561458f573373ffffffffffffffffffffffffffffffffffffffff16600960003373ffffffffffffffffffffffffffffffffffffffff1673ffffffffffffffffffffffffffffffffffffffff168152602001908152602001600020828154811061446a576144696155c9565b5b906000526020600020906008020160000160009054906101000a900473ffffffffffffffffffffffffffffffffffffffff1673ffffffffffffffffffffffffffffffffffffffff1614801561456c57508373ffffffffffffffffffffffffffffffffffffffff16600960003373ffffffffffffffffffffffffffffffffffffffff1673ffffffffffffffffffffffffffffffffffffffff1681526020019081526020016000208281548110614522576145216155c9565b5b906000526020600020906008020160010160009054906101000a900473ffffffffffffffffffffffffffffffffffffffff1673ffffffffffffffffffffffffffffffffffffffff16145b1561457c57600192505050614596565b8080614587906154f3565b9150506143fa565b5060009150505b919050565b6040518060600160405280600073ffffffffffffffffffffffffffffffffffffffff16815260200160008152602001600081525090565b60006145e56145e08461524d565b615228565b9050828152602081018484840111156146015761460061562c565b5b61460c84828561548f565b509392505050565b60008135905061462381615a38565b92915050565b60008151905061463881615a4f565b92915050565b600082601f83011261465357614652615627565b5b81516146638482602086016145d2565b91505092915050565b60008135905061467b81615a66565b92915050565b60008151905061469081615a66565b92915050565b6000602082840312156146ac576146ab615636565b5b60006146ba84828501614614565b91505092915050565b600080604083850312156146da576146d9615636565b5b60006146e885828601614614565b92505060206146f985828601614614565b9150509250929050565b60008060006060848603121561471c5761471b615636565b5b600061472a86828701614614565b935050602061473b86828701614614565b925050604061474c8682870161466c565b9150509250925092565b6000806040838503121561476d5761476c615636565b5b600061477b85828601614614565b925050602061478c8582860161466c565b9150509250929050565b6000806000606084860312156147af576147ae615636565b5b60006147bd86828701614614565b93505060206147ce8682870161466c565b92505060406147df8682870161466c565b9150509250925092565b6000602082840312156147ff576147fe615636565b5b600061480d84828501614629565b91505092915050565b60006020828403121561482c5761482b615636565b5b600082015167ffffffffffffffff81111561484a57614849615631565b5b6148568482850161463e565b91505092915050565b60006020828403121561487557614874615636565b5b60006148838482850161466c565b91505092915050565b6000602082840312156148a2576148a1615636565b5b60006148b084828501614681565b91505092915050565b60006148c58383614cb3565b60608301905092915050565b60006148dd8383614cf5565b6101008301905092915050565b6148f381615437565b82525050565b61490281615437565b82525050565b60006149138261529e565b61491d81856152d9565b93506149288361527e565b8060005b8381101561495957815161494088826148b9565b975061494b836152bf565b92505060018101905061492c565b5085935050505092915050565b6000614971826152a9565b61497b81856152ea565b93506149868361528e565b8060005b838110156149b757815161499e88826148d1565b97506149a9836152cc565b92505060018101905061498a565b5085935050505092915050565b6149cd81615449565b82525050565b60006149de826152b4565b6149e88185615306565b93506149f881856020860161548f565b614a018161563b565b840191505092915050565b6000614a17826152b4565b614a218185615317565b9350614a3181856020860161548f565b80840191505092915050565b6000614a4a602a83615306565b9150614a558261564c565b604082019050919050565b6000614a6d602c83615306565b9150614a788261569b565b604082019050919050565b6000614a90600e83615306565b9150614a9b826156ea565b602082019050919050565b6000614ab3602183615306565b9150614abe82615713565b604082019050919050565b6000614ad6602983615306565b9150614ae182615762565b604082019050919050565b6000614af9602383615306565b9150614b04826157b1565b604082019050919050565b6000614b1c600483615317565b9150614b2782615800565b600482019050919050565b6000614b3f600383615317565b9150614b4a82615829565b600382019050919050565b6000614b62600383615317565b9150614b6d82615852565b600382019050919050565b6000614b85602783615306565b9150614b908261587b565b604082019050919050565b6000614ba86000836152fb565b9150614bb3826158ca565b600082019050919050565b6000614bcb602883615306565b9150614bd6826158cd565b604082019050919050565b6000614bee600f83615306565b9150614bf98261591c565b602082019050919050565b6000614c11600483615317565b9150614c1c82615945565b600482019050919050565b6000614c34601c83615306565b9150614c3f8261596e565b602082019050919050565b6000614c57601183615306565b9150614c6282615997565b602082019050919050565b6000614c7a601f83615306565b9150614c85826159c0565b602082019050919050565b6000614c9d602d83615306565b9150614ca8826159e9565b604082019050919050565b606082016000820151614cc960008501826148ea565b506020820151614cdc6020850182614d97565b506040820151614cef6040850182614d97565b50505050565b61010082016000820151614d0c60008501826148ea565b506020820151614d1f60208501826148ea565b506040820151614d326040850182614d97565b506060820151614d456060850182614d97565b506080820151614d586080850182614d97565b5060a0820151614d6b60a0850182614d97565b5060c0820151614d7e60c0850182614d97565b5060e0820151614d9160e0850182614d97565b50505050565b614da081615475565b82525050565b614daf81615475565b82525050565b614dbe8161547f565b82525050565b6000614dd08284614a0c565b915081905092915050565b6000614de682614b0f565b9150819050919050565b6000614dfb82614b32565b9150819050919050565b6000614e1082614b55565b9150819050919050565b6000614e2582614b9b565b9150819050919050565b6000614e3a82614c04565b9150819050919050565b6000602082019050614e5960008301846148f9565b92915050565b6000606082019050614e7460008301866148f9565b614e8160208301856148f9565b614e8e6040830184614da6565b949350505050565b600061010082019050614eac600083018b6148f9565b614eb9602083018a6148f9565b614ec66040830189614da6565b614ed36060830188614da6565b614ee06080830187614da6565b614eed60a0830186614da6565b614efa60c0830185614da6565b614f0760e0830184614da6565b9998505050505050505050565b600061012082019050614f2a600083018c6148f9565b614f37602083018b6149c4565b614f44604083018a6149c4565b614f5160608301896149c4565b614f5e60808301886149c4565b81810360a0830152614f7081876149d3565b9050614f7f60c0830186614da6565b614f8c60e0830185614da6565b614f9a610100830184614da6565b9a9950505050505050505050565b6000604082019050614fbd60008301856148f9565b614fca6020830184614da6565b9392505050565b60006020820190508181036000830152614feb8184614908565b905092915050565b6000602082019050818103600083015261500d8184614966565b905092915050565b600060208201905061502a60008301846149c4565b92915050565b6000602082019050818103600083015261504a81846149d3565b905092915050565b6000602082019050818103600083015261506b81614a3d565b9050919050565b6000602082019050818103600083015261508b81614a60565b9050919050565b600060208201905081810360008301526150ab81614a83565b9050919050565b600060208201905081810360008301526150cb81614aa6565b9050919050565b600060208201905081810360008301526150eb81614ac9565b9050919050565b6000602082019050818103600083015261510b81614aec565b9050919050565b6000602082019050818103600083015261512b81614b78565b9050919050565b6000602082019050818103600083015261514b81614bbe565b9050919050565b6000602082019050818103600083015261516b81614be1565b9050919050565b6000602082019050818103600083015261518b81614c27565b9050919050565b600060208201905081810360008301526151ab81614c4a565b9050919050565b600060208201905081810360008301526151cb81614c6d565b9050919050565b600060208201905081810360008301526151eb81614c90565b9050919050565b60006020820190506152076000830184614da6565b92915050565b60006020820190506152226000830184614db5565b92915050565b6000615232615243565b905061523e82826154c2565b919050565b6000604051905090565b600067ffffffffffffffff821115615268576152676155f8565b5b6152718261563b565b9050602081019050919050565b6000819050602082019050919050565b6000819050602082019050919050565b600081519050919050565b600081519050919050565b600081519050919050565b6000602082019050919050565b6000602082019050919050565b600082825260208201905092915050565b600082825260208201905092915050565b600081905092915050565b600082825260208201905092915050565b600081905092915050565b600061532d82615475565b915061533883615475565b9250827fffffffffffffffffffffffffffffffffffffffffffffffffffffffffffffffff0382111561536d5761536c61553c565b5b828201905092915050565b600061538382615475565b915061538e83615475565b92508261539e5761539d61556b565b5b828204905092915050565b60006153b482615475565b91506153bf83615475565b9250817fffffffffffffffffffffffffffffffffffffffffffffffffffffffffffffffff04831182151516156153f8576153f761553c565b5b828202905092915050565b600061540e82615475565b915061541983615475565b92508282101561542c5761542b61553c565b5b828203905092915050565b600061544282615455565b9050919050565b60008115159050919050565b600073ffffffffffffffffffffffffffffffffffffffff82169050919050565b6000819050919050565b600063ffffffff82169050919050565b60005b838110156154ad578082015181840152602081019050615492565b838111156154bc576000848401525b50505050565b6154cb8261563b565b810181811067ffffffffffffffff821117156154ea576154e96155f8565b5b80604052505050565b60006154fe82615475565b91507fffffffffffffffffffffffffffffffffffffffffffffffffffffffffffffffff8214156155315761553061553c565b5b600182019050919050565b7f4e487b7100000000000000000000000000000000000000000000000000000000600052601160045260246000fd5b7f4e487b7100000000000000000000000000000000000000000000000000000000600052601260045260246000fd5b7f4e487b7100000000000000000000000000000000000000000000000000000000600052603160045260246000fd5b7f4e487b7100000000000000000000000000000000000000000000000000000000600052603260045260246000fd5b7f4e487b7100000000000000000000000000000000000000000000000000000000600052604160045260246000fd5b600080fd5b600080fd5b600080fd5b600080fd5b6000601f19601f8301169050919050565b7f4e6f7420656e6f7567682071747920696e207265736572766520706f6f6c207460008201527f6f20776974686472617700000000000000000000000000000000000000000000602082015250565b7f4e6f7420656e6f7567682071747920696e20746865207265736572766520706f60008201527f6f6c20746f20626f72726f770000000000000000000000000000000000000000602082015250565b7f4465706f736974206661696c6564000000000000000000000000000000000000600082015250565b7f43616e6e6f74207769746864726177206d6f7265207468616e2062616c616e6360008201527f6500000000000000000000000000000000000000000000000000000000000000602082015250565b7f5472616e7366657220746f207573657227732077616c6c6574206e6f7420737560008201527f63636365737366756c0000000000000000000000000000000000000000000000602082015250565b7f546f6b656e20776173206e6f7420626f72726f7765642c2043616e277420526560008201527f7061790000000000000000000000000000000000000000000000000000000000602082015250565b7f4c494e4b00000000000000000000000000000000000000000000000000000000600082015250565b7f4441490000000000000000000000000000000000000000000000000000000000600082015250565b7f4554480000000000000000000000000000000000000000000000000000000000600082015250565b7f5472616e66657220746f207573657227732077616c6c6574206e6f742073756360008201527f6365737366756c00000000000000000000000000000000000000000000000000602082015250565b50565b7f5472616e7366657220746f204c656e6465722077616c6c6574206e6f7420737560008201527f636365737366756c000000000000000000000000000000000000000000000000602082015250565b7f4e6f7420746f6b656e206f776e65720000000000000000000000000000000000600082015250565b7f5553444300000000000000000000000000000000000000000000000000000000600082015250565b7f4e6f7420656e6f7567682062616c616e636520746f20626f72726f7700000000600082015250565b7f47726561746572207468616e207a65726f000000000000000000000000000000600082015250565b7f5265656e7472616e637947756172643a207265656e7472616e742063616c6c00600082015250565b7f526570617920416d6f756e742073686f756c64206c657373207468616e20626f60008201527f72726f77656420616d6f756e7400000000000000000000000000000000000000602082015250565b615a4181615437565b8114615a4c57600080fd5b50565b615a5881615449565b8114615a6357600080fd5b50565b615a6f81615475565b8114615a7a57600080fd5b5056fea26469706673582212201bd23567645c42ab71971ac14dc83374a90c3e30559fb4078b581740f91e042f64736f6c63430008060033",
  "linkReferences": {},
  "deployedLinkReferences": {}
}